:020000040000FA
:100000007C2808008C030C08003C03180A280828E8
:100010000000022808008D0301300D020319132887
:10002000000012280B2808008E030E08003C03185D
:100030001F281F308F008F0B1B28000014281D3035
:100040008F008F0B21282428080090031008003C03
:1000500003183428C630910001309200910B3128EA
:10006000920B2E2833282528C530910001309200AC
:10007000910B3B28920B38283D28080001301302D1
:1000800019100319191400301402191C0311031D4F
:100090005128930300301302031D4F2894030000DE
:1000A0003E28522853280800960300301602031DEC
:1000B000652800301702031D63285E285F2860282A
:1000C00000000800642897036928662867286828C4
:1000D00000006A286B280000542808006F28702848
:1000E00071287228732898030130180203197B289D
:1000F00000007A286E280800012064308C0002205D
:1001000064308D000B2064308E0014206430900029
:100110002520643098006E20E8309300033094006E
:0E0120003E20E8309600033097005420630024
:00000001FF
;PIC16F84A
