:020000040000FA
:100000009E2808008C030C08003C03180A280828C6
:100010000000022808008D0301300D020319132887
:10002000000012280B2808008E030E08003C03185D
:100030001F281F308F008F0B1B28000014281D3035
:100040008F008F0B2128242808001D309100910B70
:1000500027282A2890031008003C031834281F3052
:100060009100910B3128000008003F2892031208EC
:10007000003C031845283C283D283E2800001C3041
:100080009300930B412800003628080094031408BD
:10009000003C03185528C630950001309600950B9A
:1000A0005228960B4F2854284628C5309500013019
:1000B0009600950B5C28960B59285E2808000130A5
:1000C00017021D1003191D14003018021D1C031106
:1000D000031D7328970300301702031D702898032F
:1000E000000083125F287428752808009A030030E6
:1000F0001A02031D872800301B02031D8528802853
:10010000812882280000080086289B038B288828E5
:1001100089288A2800008C288D280000762808006D
:10012000912892289328942895289C0300301C023B
:1001300003199D2800009C289028080001206430A5
:100140008C00022064308D000B2064308E0014205F
:100150006430900025206430920035206430940093
:10016000462064309C009020E830970003309800CF
:100170005F208312E8309A0003309B0076206300F2
:00000001FF
;PIC16F84A
