:020000040000FA
:10000000442808008C030C08003C03180A28082820
:100010000000022808008D030D08003C0318162874
:100020001F308E008E0B122800000B281D308E0012
:100030008E0B18281B2808008F030F08003C03189C
:100040002B28C630900001309100900B2828910B8E
:1000500025282A281C28C530900001309100900BDB
:100060003228910B2F283428080001309200930188
:100070000030120215100319151400301302151C5C
:100080000311031D35280800012064308C00022074
:1000900064308D000B2064308F001C20E83092000B
:0800A0000330930035206300DA
:00000001FF
;PIC16F84A
