:020000040000FA
:100000008C2808008C030C08003C03180A280828D8
:100010000000022808008D0301300D020319132887
:10002000000012280B2808008E030E08003C03185D
:100030001F281F308F008F0B1B28000014281D3035
:100040008F008F0B2128242808001D309100910B70
:1000500027282A2890031008003C031834281F3052
:100060009100910B31280000080092031208003C17
:1000700003184428C630930001309400930B4128A4
:10008000940B3E2843283528C53093000130940056
:10009000930B4B28940B48284D280800013015027B
:1000A0001B1003191B14003016021B1C0311031D27
:1000B0006128950300301502031D5F289603000098
:1000C0004E28622863280800980300301802031D98
:1000D000752800301902031D73286E286F287028B8
:1000E0000000080074289903792876287728782852
:1000F00000007A287B280000642808007F288028D8
:100100008128822883289A0301301A0203198B2838
:1001100000008A287E280800012064308C0002201C
:1001200064308D000B2064308E0014206430900009
:10013000252064309200352064309A007E20E8301B
:100140009500033096004E20E83098000330990067
:0401500064206300C4
:00000001FF
;PIC16F84A
