:020000040000FA
:10000000F829A101B900A10AB90AB90B0828A10B66
:100010000A280800FA30FF3E0D280E28031D0B2881
:1000200005280612251A06168612A51A8616061324
:10003000251B06178613A51B86178615023001207F
:10004000861108002608A50011200310260DB9000E
:100050000310B90D0310B90D0310390DA5001120BF
:1000600002300120080006112708A60022200800FF
:100070000615A6002220080000302902031D46288C
:100080002A08803E003EA700332063280130290261
:10009000031D50282A08803E403EA70033206328D5
:1000A00002302902031D5A282A08803E143EA70068
:1000B0003320632803302902031D63282A08803E69
:1000C000543EA700332008000130A7003320080069
:1000D00083160612861206138613061186118312E2
:1000E0002C08A3002B08A4000130A1002C30022012
:1000F000061186113030A500112005300120303066
:10010000A5001120013001203030A5001120013060
:1001100001202030A50011202830A700332008300E
:10012000A70033200130A70033200630A70033207A
:100130000C30A70033200230A700332008008312C0
:10014000031363086107A100620860070318A10A8E
:1001500008008312031363086102A10062086002B1
:10016000031CA103080083120313E401A101621C14
:10017000BF286008E40761080318013EA1070310C7
:10018000E30CE20C0310E00DE10D62086304003C97
:10019000031DB7286408080083120313E401A101BA
:1001A00062086304003C031DD928FF30E000E10031
:1001B00008001030E500E00DE10DE40DA10D62082E
:1001C000E4026308031C013EA10260140318EF2837
:1001D00060106208E40763080318013EA107E50BFD
:1001E000DB2864080800CC206108A1006008080032
:1001F0002D08E0002E08E10008002D08E2002E087E
:10020000E30008006408093C03180A293730640732
:10021000E4000D2930306407E40064083820080049
:1002200003102E0CB9000310B90C0310B90C031005
:10023000390CE40002210F302E05E40002210310E6
:100240002D0CB9000310B90C0310B90C0310390CB4
:10025000E40002210F302D05E400022108002D08E2
:10026000AF002E08B0002D08B1002E08B2001030EB
:10027000B3002730B400B6013108AD003208AE003B
:10028000F8203308AD003408AE00FD20CC208312E6
:100290000313B1002108B2000F306005B500303003
:1002A0003507B500350838203308AD003408AE00F6
:1002B000F820AE010A30AD00FD20F320B300210884
:1002C000B400B60A05303602031D3C292F08AD00E4
:1002D0003008AE000800A901AA013C2048303820AF
:1002E000653038207830382061303820643038204C
:1002F0006530382063303820693038206D30382040
:10030000613038206C303820A9011030AA003C2020
:100310002D3038202D3038202D3038202D30382009
:100320000130A900AA013C20313038203630382075
:10033000203038206230382069303820743038203E
:10034000733038203A3038200230A900AA013C200E
:100350004430382065303820633038206930382008
:100360006D303820613038206C3038200230A900E0
:100370000F30AA003C202D3038202D3038202D3071
:1003800038202D3038202D3038200330A900AA0124
:100390003C20313038203630382020303820623050
:1003A00038206930382074303820733038203A30A3
:1003B0003820B701B8013708AD003808AE00013069
:1003C000A9001030AA003C2010210330A9000F30F2
:1003D000AA003C202F21831203133808A1000F30FC
:1003E00037070318A10AB7002108B800DB29080065
:1003F0000430AB001430AC00682083120313533078
:100400003820753038206D30382061303820723017
:1004100038203A3038200130A9000F30AA003C20A3
:100420003430AD001230AE0010210230A9000E3081
:10043000AA003C202B303820F8207830AD00563010
:10044000AE001021FD209F2083120313AD00210870
:10045000AE000330A9000E30AA003C203D30382009
:1004600010210330A100E8300220642052303820EF
:1004700065303820733038207430382061303820AF
:10048000723038203A3038200130A9000F30AA00ED
:100490003C203230AD005430AE0010210230A900B3
:1004A0000E30AA003C202D303820F8203430AD002A
:1004B0001230AE001021FD20A92083120313AD00DD
:1004C0002108AE000330A9000E30AA003C203D30C8
:1004D000382010210B30A100B830022064204D30AC
:1004E0003820753038206C3038207430382069302E
:1004F0003820703038206C30382069303820633034
:10050000382061303820723038203A3038200130BD
:10051000A9000F30AA003C204530AD000330AE00EA
:1005200010210230A9000E30AA003C20783038207B
:10053000F820AE013030AD001021FD20B320831231
:100540000313AD002108AE000330A9000E30AA004D
:100550003C203D30382010210B30A100B830022063
:1005600064204430382069303820763038206930B3
:1005700038206430382069303820723038203A30E2
:1005800038200130A9000F30AA003C20F030AD0027
:10059000FF30AE0010210230A9000E30AA003C202E
:1005A0002F303820F8207730AD000730AE00102112
:1005B000FD20F320AD002108AE000330A9000E306D
:1005C000AA003C203D30382010210B30A100B8306B
:1005D00002206420523038206530382073303820B3
:1005E000743038206F3038202030382028303820C0
:1005F0004D3038206F303820643038207530382046
:100600006C3038206F303820293038203A3038208C
:100610000130A9000F30AA003C203630AD00233055
:10062000AE0010210230A9000E30AA003C20253077
:100630003820F8205630AD000230AE001021FD20E9
:10064000CC2083120313AD002108AE000330A900B3
:100650000E30AA003C203D30382010210B30A10084
:0E066000B830022064206B2183120313630064
:00000001FF
;PIC16F72
