:020000040000FA
:10000000BA2AA101C300A10AC30AC30B0828A10B85
:100010000A280800FA30FF3E0D280E28031D0B2881
:1000200005280612251A06168612A51A8616061324
:10003000251B06178613A51B86178615023001207F
:10004000861108002608A50011200310260DC30004
:100050000310C30D0310C30D0310430DA5001120A1
:1000600002300120080006112708A60022200800FF
:100070000615A6002220080000302902031D46288C
:100080002A08803E003EA700332063280130290261
:10009000031D50282A08803E403EA70033206328D5
:1000A00002302902031D5A282A08803E143EA70068
:1000B0003320632803302902031D63282A08803E69
:1000C000543EA700332008000130A7003320080069
:1000D00083160612861206138613061186118312E2
:1000E0002C08A3002B08A4000130A1002C30022012
:1000F000061186113030A500112005300120303066
:10010000A5001120013001203030A5001120013060
:1001100001202030A50011202830A700332008300E
:10012000A70033200130A70033200630A70033207A
:100130000C30A70033200230A700332008008312C0
:10014000031364086007E80065080318013E6107AF
:10015000E90066080318013E6207EA006708031811
:10016000013E6307EB00080083120313640860027A
:10017000E8006508031C013E6102E9006608031CF3
:10018000013E6202EA006708031C013E6302EB00C5
:10019000080083120313E801E901EA01EB01641C82
:1001A000DF286008E80761080318013EE9076208D4
:1001B0000318013EEA0763080318013EEB0703102A
:1001C000E70CE60CE50CE40C0310E00DE10DE20D8C
:1001D000E30D6408650466046704031DCF28080066
:1001E00083120313E801E901EA01EB0164086504E5
:1001F00066046704031D0229FF30E000E100E2000D
:10020000E30008002030EC00E00DE10DE20DE30D0D
:10021000E80DE90DEA0DEB0D6408E8026508031C22
:10022000013EE9026608031C013EEA026708031C5E
:10023000013EEB02601403182C2960106408E807E3
:1002400065080318013EE90766080318013EEA073E
:1002500067080318013EEB07EC0B04290800F020A7
:10026000831203136008E8006108E9006308EB00EB
:100270006208EA0008006808AD006908AE006A0874
:10028000AF006B08B00008002D08E0002E08E10068
:100290002F08E2003008E30008002D08E4002E08D3
:1002A000E5002F08E6003008E70008006C08093C6C
:1002B00003185E2937306C07EC00612930306C0779
:1002C000EC006C08382008000310300CC300031049
:1002D000C30C0310C30C0310430CEC0056210F3069
:1002E0003005EC00562103102F0CC3000310C30C83
:1002F0000310C30C0310430CEC0056210F302F05E4
:10030000EC00562103102E0CC3000310C30C031085
:10031000C30C0310430CEC0056210F302E05EC00EB
:10032000562103102D0CC3000310C30C0310C30C83
:100330000310430CEC0056210F302D05EC00562124
:1003400008002F08B3003008B4002D08B1002E08B3
:10035000B2002F08B7003008B8002D08B5002E08ED
:10036000B6009A30BB003B30BC00B901CA30BA00BD
:10037000BE013708AF003808B0003508AD003608B8
:10038000AE0044213B08AF003C08B0003908AD0086
:100390003A08AE004D21F020831203136808B5001F
:1003A0006908B6006A08B7006B08B8000F3060052E
:1003B000BD0030303D07BD003D0838203B08AF0090
:1003C0003C08B0003908AD003A08AE004421AF0146
:1003D000B001AE010A30AD004D212F21831203136D
:1003E0006808B9006908BA006A08BB006B08BC005D
:1003F000BE0A0A303E02031DB9293308AF00340893
:10040000B0003108AD003208AE000800A901AA0111
:100410003C20483038206530382078303820613032
:100420003820643038206530382063303820693017
:1004300038206D303820613038206C303820203042
:1004400038202D3038202D3038202D3038202D30D8
:1004500038202D3038202D3038202D3038202D30C8
:1004600038200130A900AA013C2033303820323036
:1004700038202030382062303820693038207430FD
:100480003820733038203A3038200230A900AA01D1
:100490003C204430382065303820633038206930C3
:1004A00038206D303820613038206C3038202030D2
:1004B000382020303820203038202D3038202D3082
:1004C00038202D3038202D3038202D3038202D3058
:1004D00038202D3038202D3038202D3038202D3048
:1004E00038200330A900AA013C20333038203230B4
:1004F000382020303820623038206930382074307D
:100500003820733038203A303820C101C201BF0191
:10051000C0014108AF004208B0003F08AD004008EC
:10052000AE000130A9000C30AA003C206421033049
:10053000A9000A30AA003C20A121831203130F3026
:100540004007A100FF303F070318A10ABF002108A0
:10055000C0004008FE3C0318892ABF01C0014208C0
:10056000A100013041070318A10AC1002108C200FF
:10057000892A08000430AB001430AC0068208312D4
:10058000031353303820753038206D3038206130F7
:100590003820723038203A3038200130A900073036
:1005A000AA003C202330AF000130B0006730AD001E
:1005B0004530AE0064210230A9000630AA003C207C
:1005C0002B3038204421AB30AF008930B000EF3001
:1005D000AD00CD30AE0064214D219F208312031366
:1005E0003B210330A9000630AA003C203D303820D2
:1005F00064210B30A100B830022064205230382032
:10060000653038207330382074303820613038201D
:10061000723038203A3038200130A9000730AA0063
:100620003C207630AF009830B0003230AD0054300E
:10063000AE0064210230A9000630AA003C202D3013
:1006400038204421FE30AF001030B000BA30AD0089
:10065000DC30AE0064214D21B420831203133B2112
:100660000330A9000630AA003C203D303820642128
:100670000B30A100B830022064204D303820753096
:1006800038206C3038207430382069303820703091
:1006900038206C30382069303820633038206130A1
:1006A0003820723038203A3038200130A900073025
:1006B000AA003C20B0010530AF005530AD005530E8
:1006C000AE0064210230A9000630AA003C20783038
:1006D00038204421AF01B001AE014030AD006421AB
:1006E0004D21C920831203133B210330A90006309A
:1006F000AA003C203D30382064210B30A100B830E6
:100700000220642044303820693038207630382088
:100710006930382064303820693038207230382011
:100720003A3038200130A9000730AA003C20583068
:10073000AF002630B0003630AD002330AE0064216B
:100740000230A9000630AA003C202F303820442176
:10075000B0010130AF005630AD000230AE00642170
:100760004D212F21831203133B210330A9000630B2
:10077000AA003C203D30382064210B30A100B83065
:100780000220642052303820653038207330382001
:10079000743038206F30382020303820283038200E
:1007A0004D3038206F303820643038207530382094
:1007B0006C3038206F303820293038203A303820DB
:1007C0000130A9000730AA003C205830AF00263085
:1007D000B0003630AD002330AE0064210230A900F5
:1007E0000630AA003C20253038204421B0010130D9
:1007F000AF005630AD000230AE0064214D21F02034
:10080000831203133B210330A9000630AA003C20C9
:100810003D30382064210B30A100B8300220642024
:0808200006228312031363009A
:00000001FF
;PIC16F72
