:020000040000FA
:10000000A329A101B100A10AB10AB10B0828A10BD3
:100010000A280800FA30FF3E0D280E28031D0B2881
:1000200005280612251A06168612A51A8616061324
:10003000251B06178613A51B86178615023001207F
:10004000861108002608A50011200310260DB10016
:100050000310B10D0310B10D0310310DA5001120D7
:1000600002300120080006112708A60022200800FF
:100070000615A6002220080000302902031D46288C
:100080002A08803E003EA700332063280130290261
:10009000031D50282A08803E403EA70033206328D5
:1000A00002302902031D5A282A08803E143EA70068
:1000B0003320632803302902031D63282A08803E69
:1000C000543EA700332008000130A7003320080069
:1000D00083160612861206138613061186118312E2
:1000E0002C08A3002B08A4000130A1002C30022012
:1000F000061186113030A500112005300120303066
:10010000A5001120013001203030A5001120013060
:1001100001202030A50011202830A700332008300E
:10012000A70033200130A70033200630A70033207A
:100130000C30A70033200230A700332008008312C0
:10014000031364086007E80065080318013E6107AF
:10015000E90066080318013E6207EA006708031811
:10016000013E6307EB00080083120313640860027A
:10017000E8006508031C013E6102E9006608031CF3
:10018000013E6202EA006708031C013E6302EB00C5
:10019000080083120313E801E901EA01EB01641C82
:1001A000DF286008E80761080318013EE9076208D4
:1001B0000318013EEA0763080318013EEB0703102A
:1001C000E70CE60CE50CE40C0310E00DE10DE20D8C
:1001D000E30D6408650466046704003C031DCF2832
:1001E000080083120313E801E901EA01EB01640846
:1001F000650466046704003C031D0429FF30E00029
:10020000E100E200E30008002030EC00E00DE10D29
:10021000E20DE30DE80DE90DEA0DEB0D6408E802CF
:100220006508031C013EE9026608031C013EEA0260
:100230006708031C013EEB02601403182E296010AE
:100240006408E80765080318013EE9076608031813
:10025000013EEA0767080318013EEB07EC0B06298D
:100260000800F120831203136008E8006108E90028
:100270006308EB006208EA0008006808AD0069083E
:10028000AE006A08AF006B08B00008002D08E0005F
:100290002E08E1002F08E2003008E30008002D08D6
:1002A000E4002E08E5002F08E6003008E70008000B
:1002B0006C08093C0318602937306C07EC0063298F
:1002C00030306C07EC006C08382008000310300C4C
:1002D000B1000310B10C0310B10C0310310CEC0091
:1002E00058210F303005EC00582103102F0CB100BD
:1002F0000310B10C0310B10C0310310CEC005821A9
:100300000F302F05EC00582103102E0CB100031004
:10031000B10C0310B10C0310310CEC0058210F305C
:100320002E05EC00582103102D0CB1000310B10C68
:100330000310B10C0310310CEC0058210F302D05C7
:10034000EC00582108000430AB001430AC006820E9
:100350008312031353303820753038206D30382025
:1003600061303820723038203A3038200130A9000E
:100370000730AA003C202330AF000130B0006730C6
:10038000AD004530AE0066210230A9000630AA005B
:100390003C202B3038204621AB30AF008930B000F4
:1003A000EF30AD00CD30AE0066214F219F2083128B
:1003B00003133D210330A9000630AA003C203D3044
:1003C000382066210B30A100B83002206420523062
:1003D0003820653038207330382074303820613050
:1003E0003820723038203A3038200130A9000730E8
:1003F000AA003C207630AF009830B0003230AD001B
:100400005430AE0066210230A9000630AA003C201C
:100410002D3038204621FE30AF001030B000BA3009
:10042000AD00DC30AE0066214F21B42083120313EF
:100430003D210330A9000630AA003C203D30382081
:1004400066210B30A100B830022064204D303820E6
:10045000753038206C3038207430382069303820BE
:10046000703038206C3038206930382063303820C4
:1004700061303820723038203A3038200130A900FD
:100480000730AA003C20B0010530AF005530AD0068
:100490005530AE0066210230A9000630AA003C208B
:1004A000783038204621AF01B001AE014030AD00B8
:1004B00066214F21C920831203133D210330A90077
:1004C0000630AA003C203D30382066210B30A100C8
:1004D000B83002206420443038206930382076302B
:1004E0003820693038206430382069303820723044
:1004F00038203A3038200130A9000730AA003C20CB
:100500005830AF002630B0003630AD002330AE009A
:1005100066210230A9000630AA003C202F30382086
:100520004621B0010130AF005630AD000230AE00C0
:1005300066214F213121831203133D210330A9008D
:100540000630AA003C203D30382066210B30A10047
:10055000B8300220642052303820653038207330A3
:100560003820743038206F30382020303820283040
:1005700038204D3038206F303820643038207530C6
:1005800038206C3038206F303820293038203A300D
:1005900038200130A9000730AA003C205830AF00B5
:1005A0002630B0003630AD002330AE006621023078
:1005B000A9000630AA003C20253038204621B00191
:1005C0000130AF005630AD000230AE0066214F2141
:1005D000F120831203133D210330A9000630AA0045
:0A05E0003C203D3038206621630006
:00000001FF
;PIC16F72
