:020000040000FA
:10000000B82BAC018400AC0A840A840B0828AC0B22
:100010000A280800FA30FF3E031D0B28052883122A
:100020000612141A06168612941A86160613141B44
:1000300006178613941B861786150130012086113A
:100040000130012008008312150894000F2083124C
:100050000310150DAD000310AD0D0310AD0D031011
:100060002D0D94000F20831208008312061116082C
:1000700095002320831208008312061517089500A7
:1000800023208312080083129908031D4E281808A4
:10009000803E003E96003520831254281808803E8A
:1000A000403E960035208312831208008312831687
:1000B000061286120613861306118611C830012017
:1000C0001E3001203030831294000F20831205303F
:1000D0000120303094000F20831201300120303095
:1000E00094000F208312203094000F2083122830B8
:1000F0009600352083120830960035208312063092
:100100009600352083120C30960035208312013082
:100110009600352083120800831206148614831675
:10012000861006108312061086100800831206102F
:1001300086140614080083129B0108301B02031862
:10014000AB2806109A1B0614861403101A0D9A0089
:1001500086109B0A9D2883160614831286141C1091
:1001600006181C14861083160610831203111C181F
:1001700003150800080083129E01831606148312DB
:100180009D0108301D020318D028861403101E0D8F
:100190009E00061CCC281E14831286109D0AC128BE
:1001A000831606109C1CD72883120610D9288312A8
:1001B00006148312861486101E0808000800831295
:1001C000A0011F08093C0318EC2810301F029F00F3
:1001D0000A302007A000E1281F082007A0002008FF
:1001E000080008008312A2012108093C0318FF2817
:1001F00010302207A2000A302102A100F4282108B1
:100200002207A20022080800080083128C20831213
:10021000D0309A009B2083129A019B2083128C205D
:100220008312D1309A009B2083129C14BB2083122E
:1002300092009C14BB20831291009C14BB2083125B
:1002400090009C14BB2083128C009C14BB20831252
:100250008D009C14BB2083128E009C10BB20831247
:100260008F009620831212089F00DF2083129200D5
:1002700011089F00DF208312910010089F00DF20EB
:10028000831290000D089F00DF2083128D000E085E
:100290009F00DF2083128E000F089F00DF20831253
:1002A0008F00080083128C208312D0309A009B208C
:1002B00083129A019B2083121208A100F22083125C
:1002C000A30023089A009B2083121108A100F220AA
:1002D0008312A30023089A009B2083121008A10018
:1002E000F2208312A30023089A009B2083120C089B
:1002F0009A009B2083120D08A100F2208312A30014
:1003000023089A009B2083120E08A100F22083127A
:10031000A30023089A009B2083120F08A100F2205B
:100320008312A30023089A009B2083129620831235
:10033000080083120C03031DAA29443097003C20B7
:1003400083124F3097003C2083124D3097003C20A1
:100350008312152A02300C02031DBB294C30970072
:100360003C208312553097003C2083124E3097007A
:100370003C208312142A03300C02031DCC294D307B
:1003800097003C208312413097003C20831252306A
:1003900097003C208312132A04300C02031DDD2930
:1003A0004D3097003C208312493097003C20831247
:1003B000453097003C208312122A05300C02031DA1
:1003C000EE294A3097003C208312553097003C209C
:1003D0008312453097003C208312112A06300C020C
:1003E000031DFF29563097003C20831249309700A7
:1003F0003C208312453097003C208312102A07309E
:100400000C02031D0F2A533097003C208312413009
:1004100097003C208312423097003C2083128312C5
:1004200083128312831283128312831208008312B1
:100430000F08A4002408043C0318222A04302402D4
:10044000A4001A2AA408031D282A031508002A2A32
:100450000311080083120800831202300E021C11DF
:1004600003191C15172283121C1D0311031D3B2A9F
:100470001D3008003D2A1C300800831204300E0293
:100480001C1103191C1506300E021C1903151C1132
:1004900003191C1509300E021C1903151C11031930
:1004A0001C150B300E021C190315031D5A2A1E3091
:1004B00008005C2A1F3008008312080083122508F8
:1004C000A100F2208312A5000310250CAD0003103B
:1004D000AD0C0310AD0C03102D0C303E97003C20EA
:1004E00083120F302505303E97003C208312080010
:1004F0008312013098009901432083120D08A50052
:100500005E2283122F3097003C2083120E08A50034
:100510005E2283122F3097003C2083120F08A50023
:100520005E228312203097003C20831220309700F7
:100530003C208312203097003C20831299218312A3
:100540000130980001309900432083121008A50063
:100550005E2283123A3097003C2083121108A500D6
:100560005E2283123A3097003C2083121208A500C5
:100570005E2283120800831202300505051D031553
:10058000031DFB2A0C309600352083120519D12A51
:10059000AA0A2A0827020318CF2A2608AA008312CB
:1005A000E12AAA0326082A02013003051C110319B7
:1005B0001C152A0A1C190315031DE02A2708AA0086
:1005C0008312831228089800290899004320831277
:1005D0000C302802031DF12A2A088C00992183126D
:1005E000F52A2A08A5005E22831283120130AC008E
:1005F000F4300220BC2A05180A2B930A0518032B95
:100600000A300120FE2A2A0827020318092B27088E
:10061000AA00831283120C302802031D102BA80A93
:100620008312A80A280898002908990043208312F9
:100630000E309600352083122A0808000800831225
:10064000073098000130990043208312A5015E22F3
:1006500083120E3096003520831292080730130261
:1006600003189A2B1303031D412BA6016330A70027
:100670000730A800A9010F08AA00BB2283128F002F
:10068000322B02301302031D522B0130A6000C3016
:10069000A7000430A800A9010E08AA00BB228312FB
:1006A0008E00412B03301302031D662B2C22831274
:1006B000AB000130A6002B08A7000130A800A9015B
:1006C0000D08AA00BB2283128D00522B04301302A6
:1006D000031D772BA6011730A7000130A8000130B9
:1006E000A9001008AA00BB2283129000662B0530D7
:1006F0001302031D882BA6013B30A7000430A8007D
:100700000130A9001108AA00BB2283129100772BA7
:1007100006301302031D992B0130A6000730A700F5
:100720000C30A800A9010C08AA00BB2283128C007F
:10073000882B2E2B0C309600352083120800831254
:10074000831605158514051485158C208312D03069
:100750009A009B20831207309A009B2083129030CE
:100760009A009B2083129620831256208312080041
:100770009F2383120518C72B013093000518C32B44
:100780000A300120BE2B1F238312522183128312B1
:100790000521831278228312920A8519CD2B851D9B
:0607A000CF2BBA2B630011
:00000001FF
;PIC16F84A
