:020000040000FA
:1000000000008A110A1273290130FF0007308A119B
:100010000A127F268A110A1200308A110A125C26FF
:100020008A110A120E308A110A12FF268A110A1248
:1000300007308312031346020318C42883120313E4
:100040004608013A031D3828831203134208FC00B6
:100050000030FD000730FE006330FF0000308A11E1
:100060000A120F228A110A1283120313C2001E28D9
:10007000831203134608023A031D52288312031306
:100080004108FC000030FD000430FE000C30FF0091
:1000900001308A110A120F228A110A1283120313E5
:1000A000C1003828831203134608033A031D76283B
:1000B0008A110A120B268A110A1283120313B20044
:1000C000831203134008FC000030FD000130FE00E5
:1000D000831203133208FF0001308A110A120F2223
:1000E0008A110A1283120313C000522883120313C9
:1000F0004608043A031D9028831203134308FC00AA
:100100000130FD000130FE001730FF0000308A1181
:100110000A120F228A110A1283120313C3007628CF
:10012000831203134608053A031DAA2883120313FA
:100130004408FC000130FD000430FE003B30FF00AD
:1001400000308A110A120F228A110A128312031335
:10015000C4009028831203134608063A031D18288A
:10016000831203133F08FC000030FD000C30FE003A
:100170000730FF0001308A110A120F228A110A1279
:1001800083120313BF00AA280C308A110A12FF261B
:100190008A110A1208000130831203133F02031C64
:1001A000722908303F02031872293F038312031398
:1001B000AB000030831203138A00E730831203136D
:1001C0002B07031CE628831203138A0A8200EE28F9
:1001D0000129142927293A294D29602944308A11F7
:1001E0000A12F0268A110A124F308A110A12F026DA
:1001F0008A110A124D308A110A12F0268A110A1247
:1002000072294C308A110A12F0268A110A125530CE
:100210008A110A12F0268A110A124E308A110A1225
:10022000F0268A110A1272294D308A110A12F0261C
:100230008A110A1241308A110A12F0268A110A1212
:1002400052308A110A12F0268A110A1272294D3090
:100250008A110A12F0268A110A1249308A110A12EA
:10026000F0268A110A1245308A110A12F0268A11E4
:100270000A1272294A308A110A12F0268A110A12C9
:1002800055308A110A12F0268A110A1245308A1155
:100290000A12F0268A110A12722956308A110A129D
:1002A000F0268A110A1249308A110A12F0268A11A0
:1002B0000A1245308A110A12F0268A110A1272298E
:1002C00053308A110A12F0268A110A1241308A111B
:1002D0000A12F0268A110A1242308A110A12F026F6
:1002E0008A110A1208001B30FE000730FF00803020
:1002F0008A110A12A5258A110A1283120313B40067
:100300007F08B3001D30B5000730B6008312031319
:100310003308B7003408B800FF30B307031CB40338
:100320003708380403190B2A04303507B700B80121
:10033000B80D3608B8073708FE003808FF008030CF
:100340008A110A12A5258A110A1283120313BA0010
:100350007F08B9003508FE003608FF0080308A119A
:100360000A12A5258A110A1283120313BC00B800D1
:100370007F08BB00B70002303507B700B801B80DE1
:100380003608B8073708FE003808FF0080308A11A9
:100390000A12A5258A110A1283120313B800BE009F
:1003A0007F08B700BD00831203133908BD003A0867
:1003B000BE00FF30B907031CBA033D083E04031911
:1003C000042A3B08FE003C08FF0080308A110A1214
:1003D000C6258A110A1283120313BD00370883123F
:1003E00003138400831383120313381883173D0803
:1003F00083120313800083120313BB0A0319BC0A80
:10040000B70A0319B80AD329063083120313B507B4
:100410000318B60A86298A110A126D2D0800831264
:100420000313AD007F08AE007E08AF007D08B0006A
:100430007C08B10083120313051C202A8518702A3A
:100440000C308A110A12FF268A110A128312031332
:100450000518342A83120313B10A31082E02031837
:10046000432A2D08B100432A83120313B1032D0838
:100470003102031C3F2A3108FF3A031D432A83122D
:1004800003132E08B100831203133008FF002F0856
:100490008A110A127F268A110A1283120313460850
:1004A000063A031D5F2A83120313310883120313D4
:1004B000BF008A110A12CB208A110A12672A8312FE
:1004C000031331088A110A125C268A110A12F430C9
:1004D000FF0001308A110A1236268A110A121A2ADE
:1004E0008312031305198C2A83120313C60A83127D
:1004F00003130519842A0A30FF0000308A110A12FA
:1005000036268A110A12772A8312031331082E0223
:1005100003188C2A2E08B100831203134608063AEA
:10052000031D952A83120313AF0A83120313AF0A24
:100530003008FF002F088A110A127F268A110A123A
:100540000E308A110A12FF268A110A12831203132F
:10055000310808008A110A120E278A110A12D030B7
:100560008A110A12E6248A110A1200308A110A122C
:10057000E6248A110A128A110A120E278A110A1217
:10058000D1308A110A12E6248A110A1201308A1126
:100590000A122D258A110A1283120313A4008A114C
:1005A0000A12C9268A110A1283120313C5000130E8
:1005B0008A110A122D258A110A1283120313A4002C
:1005C0008A110A12C9268A110A1283120313C4005F
:1005D00001308A110A122D258A110A12831203137F
:1005E000A4008A110A12C9268A110A12831203135F
:1005F000C30001308A110A122D258A110A128312B2
:100600000313BF0001308A110A122D258A110A1224
:1006100083120313A4008A110A12C9268A110A122E
:1006200083120313C00001308A110A122D258A118A
:100630000A1283120313A4008A110A12C9268A110E
:100640000A1283120313C10000308A110A122D25E9
:100650008A110A1283120313A4008A110A12C926EE
:100660008A110A1283120313C2008A110A12232765
:100670008A110A1208008A110A120E278A110A1218
:10068000D0308A110A12E6248A110A1200308A1127
:100690000A12E6248A110A1200308A110A12E6248C
:1006A0008A110A128312031344088A110A12B4260B
:1006B0008A110A1283120313A4008A110A12E62473
:1006C0008A110A128312031343088A110A12B426EC
:1006D0008A110A1283120313A4008A110A12E62453
:1006E0008A110A12831203133F088A110A12E624A0
:1006F0008A110A128312031340088A110A12B426BF
:100700008A110A1283120313A4008A110A12E62422
:100710008A110A128312031341088A110A12B4269D
:100720008A110A1283120313A4008A110A12E62402
:100730008A110A128312031342088A110A12B4267C
:100740008A110A1283120313A4008A110A12E624E2
:100750008A110A128A110A1223278A110A12080022
:100760000030FF0001308A110A127F268A110A1216
:100770008312031340088A110A125C268A110A1296
:100780002F308A110A12F0268A110A1283120313DB
:1007900041088A110A125C268A110A122F308A1126
:1007A0000A12F0268A110A128312031342088A11D0
:1007B0000A125C268A110A1220308A110A12F026C7
:1007C0008A110A1220308A110A12F0268A110A129E
:1007D00020308A110A12F0268A110A128A110A128E
:1007E000CB208A110A120130FF0001308A110A124F
:1007F0007F268A110A128312031343088A110A12F0
:100800005C268A110A123A308A110A12F0268A11DD
:100810000A128312031344088A110A125C268A11F1
:100820000A123A308A110A12F0268A110A12831229
:10083000031345088A110A125C268A110A1208005D
:1008400083160313061286120613861306118611E9
:10085000C830FF0000308A110A1236268A110A12A7
:1008600083120313061186111E30FF0000308A1117
:100870000A1236268A110A1230308A110A1283248B
:100880008A110A120530FF0000308A110A1236263A
:100890008A110A1230308A110A1283248A110A122C
:1008A0000130FF0000308A110A1236268A110A121E
:1008B00030308A110A1283248A110A1220308A11D8
:1008C0000A1283248A110A1228308A110A12FF267A
:1008D0008A110A1208308A110A12FF268A110A1296
:1008E00006308A110A12FF268A110A120C308A1168
:1008F0000A12FF268A110A1201308A110A12FF26F3
:100900008A110A12080083120313A6001039031D6E
:100910000130A700A800280C0318912C83120313A0
:100920000612031C962C831203130616831203135C
:1009300026082039031D0130A700A800280C031841
:10094000A42C831203138612031CA92C83120313F5
:1009500086168312031326084039031D0130A700B1
:10096000A800280C0318B72C831203130613031CCA
:10097000BC2C831203130617831203132608803935
:10098000031D0130A700A600260C0318CA2C8312F1
:1009900003138613031CCF2C8312031386178312B1
:1009A000031386150230FF0000308A110A12362622
:1009B0008A110A128312031386110230FF000030DD
:1009C0008A110A1236268A110A12080083120313AA
:1009D000A100A0018312031321088039031D0130F7
:1009E000A300230C0318F72C831203130610031C17
:1009F000FC2C8312031306148312031386140310B2
:100A000083120313A10D83120313861083120313A1
:100A1000A00A08302002031CEA2C831603130614D4
:100A200083120313861483120313A1018312031389
:100A3000061C1D2D83120313A10A83120313210820
:100A400003190130A00083120313861083160313C9
:100A50000610831203132008080083120313A10059
:100A6000A00183160313061483120313A201831239
:100A700003138614031083120313A00D83120313B0
:100A8000061C452D831203132014831203138610B2
:100A900083120313A20A08302202031C372D831687
:100AA00003130610831203132108003003190130C9
:100AB000A200A100210C0318602D8312031306105D
:100AC000031C652D8312031306148312031386146B
:100AD000861083120313200808008A110A12D925F0
:100AE0008A110A12831203130519912D0130831202
:100AF0000313C600831203130519872D0A30FF0064
:100B000000308A110A1236268A110A127A2D8A11A9
:100B10000A1204208A110A128A110A123B238A112E
:100B20000A128A110A12AA228A110A128A110A12B8
:100B3000B0238A110A128312031385199B2D831285
:100B400003138519722D9F2D0800003A0319AD2D4E
:100B5000803A0319B72DFF0100347E088400831307
:100B60007F1883170008FF00840A000808008A1114
:100B70000A12D425FD00FE0FFF03FF0A8A110A1294
:100B8000D425FC007D08FF007C080800003A03190A
:100B9000CD2D803A0319D42D00347E0884008313B0
:100BA0007F188317000808007F088A007E088200EB
:100BB00008000730831603139C0006309F00831241
:100BC00003139F018B138316031305148514051556
:100BD00085158A110A120E278A110A12D0308A113D
:100BE0000A12E6248A110A1207308A110A12E62430
:100BF0008A110A1290308A110A12E6248A110A1206
:100C00008A110A1223278A110A128A110A12202431
:100C10008A110A120800831203134108023A031DC5
:100C2000202E8A110A129B268A110A12831203139C
:100C3000A000200803191E2E1D30352E1C30352E25
:100C4000831203134108043A0319322E4108063A6D
:100C50000319322E4108093A0319322E41080B3A82
:100C6000031D342E1E30352E1F300800831203134F
:100C7000A1007F08A000831203132008A20021080E
:100C8000A300FF30A007031CA103220823040319BB
:100C90005B2E3D30A200A301831203132208A4009F
:100CA0002308A500FF30A207031CA3032408250482
:100CB00003193B2E4C2E080083120313AB008A113C
:100CC0000A12B4268A110A1283120313AB002B0EE8
:100CD0000F39AC003030AC072C088A110A12F0260C
:100CE0008A110A120F3083120313AB053030AB07A1
:100CF0002B088A110A12F0268A110A1208008312A0
:100D00000313AB007F08AC002C08031D902E80302D
:100D10002B07AC008A110A12FF268A110A129A2E9A
:100D2000C03083120313AB072B088A110A12FF2667
:100D30008A110A1208008312031342088312031354
:100D4000A1000430831203132102031CAA2EFC30DD
:100D5000A107A12E0030831203132104031DB22E1C
:100D60000130B32E0030080083120313A100A0014C
:100D70000A30831203132102031CC32E1030A00774
:100D8000F630A107B82E831203132108A00720080C
:100D9000080083120313A100A0010A308312031379
:100DA0002102031CD82EF030A1070A30A007CD2E57
:100DB0008312031321082007A100080083120313E4
:100DC000A9008A110A1283248A110A1283120313BA
:100DD000290EF0398A110A1283248A110A12080096
:100DE00083120313AA00831203130615831203133D
:100DF0002A088A110A12DE268A110A1208008312B2
:100E00000313AA00831203130611831203132A0883
:100E10008A110A12DE268A110A12080083120313AD
:100E20000614861483160313861006108312031308
:100E30000610861008000134003429340734473482
:100E40000034013400348312031306108614061490
:040E50000800003462
:00000001FF
