:060000000A128A11F22F22
:1004EC00831203130610861406140800F5008312F9
:1004FC000313061175080A128A11E5220800F5008B
:10050C0083120313061575080A128A11E5220800D6
:10051C008312031306148614831603138610061015
:10052C0083120313061086100800F7007608031DCB
:10053C00A52A7708803E0A128A117C2208007708C7
:10054C00C03E0A128A117C220800F200F1010A3026
:10055C007202031CB82A1030F2020A30F000700844
:10056C00F107AD2A7208F0007008F1077108080055
:10057C00F200F1010A307202031CCB2A1030F00099
:10058C007008F1070A30F202C02A7208F0007008F5
:10059C00F10771080800831203132C08F00070088F
:1005AC00F10004307102031CDE2A0430F102D72A58
:1005BC007108031DE32A0130080000300800F40024
:1005CC0074080A128A11FB230A128A117408F300A8
:1005DC0003300310F30DFF3E031DEF2A0310730DC0
:1005EC000A128A11FB230800F70077080A128A11F5
:1005FC00BE220A128A11F6007608F7007708F60078
:10060C0004300310F60CFF3E031D072B7608303E1A
:10061C000A128A1185220A128A1177080F39303E84
:10062C000A128A11852208000230831203132D0648
:10063C00031D2C2B0A128A11D1220A128A11003A9C
:10064C0003192A2B1D3008001C30080004308312BB
:10065C0003132D0603193E2B06302D0603193E2BD2
:10066C0009302D0603193E2B0B302D06031D402B94
:10067C001E3008001F300800F100F201831603132E
:10068C000614F3010830730203185B2B83128614D3
:10069C000310F20D0618721486100130F000700869
:1006AC00F30708307302031C4C2B8316031306103C
:1006BC007108031D652B831203130614682B831218
:1006CC00031306108614861072080800F200F3015A
:1006DC00083073020318872BF21F782B8312031335
:1006EC0006147B2B83120313061086140310F20DD1
:1006FC0086100130F0007008F30708307302031CF9
:10070C00722B831603130614831203138614003002
:10071C0006180130F100861083160313061008002A
:10072C000730831603139C0006309F0083120313BB
:10073C009F018B138316031305148514051585155A
:10074C000A128A118E220A128A11D0300A128A11C8
:10075C006C230A128A1107300A128A116C230A12AE
:10076C008A1190300A128A116C230A128A110A1209
:10077C008A1176220A128A110A128A119B24080005
:10078C000A128A1196230A128A118312031305196D
:10079C00EA2BFD01FD0A831203130519E02B0D3022
:1007AC0083120313A800FB30A700A70BDB2BA80BAD
:1007BC00DB2BD12B0A128A111A270A128A110A1260
:1007CC008A1137240A128A110A128A116D250A120B
:1007DC008A110A128A1100250A128A118312031334
:1007EC008519F42B8519CB2BF82BF200721E022CD9
:1007FC00831203130616052C831203130612F21E22
:10080C000B2C8312031386160E2C831203138612E1
:10081C00721F142C831203130617172C8312031345
:10082C000613F21F1D2C831203138617202C831220
:10083C000313861386150330F1009730F000F00B8C
:10084C00252CF10B252C2A2C831203138611033033
:10085C00F1009730F000F00B312CF10B312C362CD1
:10086C0008000A128A118E220A128A11D0300A123A
:10087C008A116C230A128A1100300A128A116C2315
:10088C000A128A1100300A128A116C230A128A1178
:10089C00831203132A080A128A11BE220A128A1121
:1008AC000A128A116C230A128A11831203132B0861
:1008BC000A128A11BE220A128A110A128A116C2398
:1008CC000A128A11831203132F080A128A116C233D
:1008DC000A128A11831203132E080A128A11BE22DD
:1008EC000A128A110A128A116C230A128A118312B3
:1008FC0003132D080A128A11BE220A128A110A1237
:10090C008A116C230A128A11831203132C080A12FF
:10091C008A11BE220A128A110A128A116C230A1237
:10092C008A110A128A117622080083160313061202
:10093C00861206138613061186110230F800043055
:10094C00F700BA30F600F60BA92CF70BA92CF80B14
:10095C00A92C000083120313061186112730F7000F
:10096C00F530F600F60BB82CF70BB82C30300A1219
:10097C008A11FB230A128A110730F7007D30F6002A
:10098C00F60BC62CF70BC62C30300A128A11FB233F
:10099C000A128A11C730F600D32CF60BD22CD62CA7
:1009AC00D72C30300A128A11FB230A128A112030FC
:1009BC000A128A11FB230A128A1128300A128A1190
:1009CC007C220A128A1108300A128A117C220A121D
:1009DC008A1106300A128A117C220A128A110C30F2
:1009EC000A128A117C220A128A1101300A128A1107
:1009FC007C220800F60101300A128A119B220A128D
:100A0C008A11831203132E080A128A11FA220A126F
:100A1C008A112F300A128A1185220A128A11831226
:100A2C0003132D080A128A11FA220A128A112F3086
:100A3C000A128A1185220A128A11831203132C08B6
:100A4C000A128A11FA220A128A1120300A128A1109
:100A5C0085220A128A1120300A128A1185220A1262
:100A6C008A1120300A128A1185220A128A110A125E
:100A7C008A1188260A128A11F601F60A01300A1226
:100A8C008A119B220A128A11831203132B080A1251
:100A9C008A11FA220A128A113A300A128A11852214
:100AAC000A128A11831203132A080A128A11FA22D3
:100ABC000A128A113A300A128A1185220A128A11F4
:100ACC008312031329080A128A11FA2208000A1247
:100ADC008A118E220A128A11D0300A128A116C23C2
:100AEC000A128A1100300A128A116C230A128A1116
:100AFC000A128A118E220A128A11D1300A128A1114
:100B0C006C230A128A1101300A128A1142230A122A
:100B1C008A110A128A11AB220A128A11F400740883
:100B2C0083120313A90001300A128A1142230A12FC
:100B3C008A110A128A11AB220A128A11F400740863
:100B4C0083120313AA0001300A128A1142230A12DB
:100B5C008A110A128A11AB220A128A11F400740843
:100B6C0083120313AB0001300A128A1142230A12BA
:100B7C008A11F400740883120313AF0001300A12B7
:100B8C008A1142230A128A110A128A11AB220A1202
:100B9C008A11F400740883120313AE0001300A1298
:100BAC008A1142230A128A110A128A11AB220A12E2
:100BBC008A11F400740883120313AD0000300A127A
:100BCC008A1142230A128A110A128A11AB220A12C2
:100BDC008A11F400740883120313AC000A128A11F0
:100BEC0076220800FC008312031305184D2E0C30DE
:100BFC000A128A117C220A128A1183120313051815
:100C0C00112E0130A0002008FB077B087802031886
:100C1C001E2E7C081B2E0130FB027C087B02031C61
:100C2C001A2E7B0A031D1E2E7808A0002008FB003C
:100C3C007A08A0002008F60079080A128A119B2273
:100C4C000A128A1106307D06031D382E7B0883128A
:100C5C000313A0002008AF000A128A1188260A127A
:100C6C008A113E2E7B080A128A11FA220A128A1164
:100C7C00033083120313A2008A30A1005530A00068
:100C8C00A00B462EA10B462EA20B462EF92D851C31
:100C9C00FD2D05196C2E0130A0002008FD078312D4
:100CAC0003130519642E0D3083120313A100FB30BE
:100CBC00A000A00B5F2EA10B5F2E552E7B08780297
:100CCC0003186C2E7808A0002008FB0006307D0667
:100CDC00031D742E0130A0002008F9077A08A0002B
:100CEC002008F6000130A1002108F90779080A1242
:100CFC008A119B220A128A110E300A128A117C2246
:100D0C007B080800002F44300A128A1185220A122F
:100D1C008A114F300A128A1185220A128A114D301B
:100D2C000A128A11852208004C300A128A11852277
:100D3C000A128A1155300A128A1185220A128A1156
:100D4C004E300A128A11852208004D300A128A117F
:100D5C0085220A128A1141300A128A1185220A123E
:100D6C008A1152300A128A11852208004D300A125B
:100D7C008A1185220A128A1149300A128A11852297
:100D8C000A128A1145300A128A11852208004A304B
:100D9C000A128A1185220A128A1155300A128A11F6
:100DAC0085220A128A1145300A128A1185220800FE
:100DBC0056300A128A1185220A128A1149300A12F7
:100DCC008A1185220A128A1145300A128A1185224B
:100DDC00080053300A128A1185220A128A114130F6
:100DEC000A128A1185220A128A1142300A128A11B9
:100DFC0085220800831203132F08013A0319892E48
:100E0C00033A03199A2E013A0319AB2E073A031928
:100E1C00BC2E013A0319CD2E033A0319DE2E013AEA
:100E2C000319EF2E192F0800F601F60A07300A12E3
:100E3C008A119B220A128A1100300A128A11FA2294
:100E4C000A128A110E300A128A117C220A128A1195
:100E5C00E92F633083120313A3002308F800073033
:100E6C00A4002408F900FA012C08A5002508FB00B1
:100E7C0000300A128A11F8250A128A118312031300
:100E8C00A6002608AC007D03031D672F2F2F0C3006
:100E9C0083120313A3002308F8000430A4002408D1
:100EAC00F900FA012D08A5002508FB0001300A12F3
:100EBC008A11F8250A128A1183120313A600260838
:100ECC00AD0002307D06031D882F4D2F0A128A11AA
:100EDC001A230A128A1183120313A3002308F800A1
:100EEC00F901F90AFA012E08A4002408FB000130CC
:100EFC000A128A11F8250A128A1183120313A5000B
:100F0C002508AE0003307D06031DA62F6C2F17306D
:100F1C0083120313A3002308F800F901F90AFA015C
:100F2C00FA0A2B08A4002408FB0000300A128A11CC
:100F3C00F8250A128A1183120313A5002508AB00A9
:100F4C0004307D06031DC62F8D2F3B3083120313F7
:100F5C00A3002308F8000430A4002408F900FA01C7
:100F6C00FA0A2A08A5002508FB0000300A128A118B
:100F7C00F8250A128A1183120313A6002608AA0068
:100F8C0005307D06031DE52FAB2F073083120313AD
:100F9C00A3002308F8000C30A4002408F900FA017F
:100FAC002F08A5002508FB0001300A128A11F8252C
:100FBC000A128A1183120313A6002608AF0006300A
:100FCC007D060319CB2F07307D02031C492F0C30F3
:100FDC000A128A117C220800FD0183120313A90155
:100FEC00AA01AB01AC01AD01AE01AF0183010A1244
:040FFC008A11C62B65
:02400E00F23F7F
:00000001FF
