:1000000003308A002C2B000006148614061086107C
:1000100008009A011A08073C031C1C28190880399B
:10002000803C0319152806101628061486140310A0
:10003000990D86109A0A0A280130831686008312C9
:1000400086141B1006181B148610003083168600B9
:1000500083121B1801308D00080006108614061448
:1000600008002530840000080319472801308D005E
:10007000BF308C0064008C0B3A288D0B38284A3036
:100080008C008C0B412800006400800B362808008F
:1000900024081039103C03194F2806125028061660
:1000A00024082039203C0319572886125828861620
:1000B00024084039403C03195F28061360280617BE
:1000C00024088039803C031967288613682886171E
:1000D00086150230A500312086110230A50031209E
:1000E00008002208A4004820220EA300F030A30537
:1000F0002308A4004820080006112108A20071204E
:1001000008008B138B1B8128FF308316850000307D
:10011000860083120420D03099000920073099000E
:1001200009209030990009202D20C830A5003120E9
:10013000061186111E30A50031203030A400482061
:100140000530A50031203030A40048200130A50042
:1001500031203030A40048202030A400482028302E
:10016000A1007C200830A1007C200630A1007C206A
:100170000C30A1007C200130A1007C20302B9F0896
:10018000031DC82880301E07A000A1007C20CE28B7
:1001900080301E07403EA000A1007C200800A00186
:1001A0001F08093C0318D9281030A0070A309F0205
:1001B000D0281F08A00720088D0008000615200879
:1001C000A200712008001E089F00CF200D089E008D
:1001D0001E0E8C000F308C050C08303E9F00A000D6
:1001E000DE201E080F39303E9F00A000DE200800F0
:1001F00001301002F93E03184429073E45294430D6
:10020000A000DE204F30A000DE204D30A000DE2018
:1002100044294C30A000DE205530A000DE204E30B6
:10022000A000DE2044294D30A000DE204130A00097
:10023000DE205230A000DE2044294D30A000DE2018
:100240004930A000DE204530A000DE2044294A309D
:10025000A000DE205530A000DE204530A000DE20CA
:1002600044295630A000DE204930A000DE20453071
:10027000A000DE2044295330A000DE204130A00041
:10028000DE204230A000DE2008000A148A100A1185
:100290008207FF28092913291D29272931293B29EC
:1002A000051C542985185629003057290130003A79
:1002B000031D88290C30A1007C20051867299D0AA0
:1002C0001D081A020318662919089D0070299D034C
:1002D00019081D02031C6E291D0F70291A089D00A4
:1002E0001B089E001C089F00BF201708063C031D2A
:1002F0007D291D089000F82080291D089E00E3201C
:1003000002309E00FA30A50031209E0B8229502930
:1003100005199729970A051991290A30A500312056
:100320008B291D081A02031897291A089D0017081F
:10033000063C03199B0A9B0A1B089E001C089F0091
:10034000BF200E30A1007C201D088D000800073062
:100350009E0001309F00BF209E01E3200E30A100CF
:100360007C201708063C031C512A170BC32999014E
:1003700063309A0007309B009C0113089D005021B8
:100380000D089300B5291708023C031DD42901303C
:1003900099000C309A0004309B009C0112089D00CB
:1003A00050210D089200C3291708033C031D1E2A83
:1003B0001208023C031DF929130898001808033C91
:1003C0000318E52904309802DE299808031DEC295A
:1003D00001308D00EE29EE2900308D008D080319C3
:1003E000F5291D308D000F2AF8291C308D000F2AA9
:1003F0000F2A1208043C0319092A1208063C0319A3
:10040000092A1208093C0319092A12080B3C031D8A
:100410000D2A1E308D000F2A0F2A1F308D000D0867
:1004200098000130990018089A0001309B009C0147
:1004300011089D0050210D089100D4291708043C93
:10044000031D2E2A990117309A0001309B009C0051
:1004500014089D0050210D0894001E2A1708053C21
:10046000031D3F2A99013B309A0004309B00013064
:100470009C0015089D0050210D0895002E2A170894
:10048000063C031D502A0130990007309A000C30B9
:100490009B009C0110089D0050210D0890003F2AF0
:1004A000B1290C30A1007C203B2B0420D0309900D6
:1004B0000920990109209901092015089F00CF20E2
:1004C0000D0898009900092014089F00CF200D08FE
:1004D00098009900092010089900092011089F0030
:1004E000CF200D0898009900092012089F00CF2006
:1004F0000D0898009900092013089F00CF200D08CF
:100500009800990009202D203C2B9A010130831678
:100510008600831299011908073C031C972A861448
:1005200003109A0D06181A148610990A8B2A0030A7
:1005300083168600831298080319A02A0610A12AA0
:100540000614861486101A088D0008009A011908EE
:10055000093C0318B02A103099020A309A07A72ADA
:1005600019089A071A088D0008000420D030990055
:100570000920990109200420D13099000920013077
:10058000980085220D0898009900A6220D08960073
:100590000130980085220D0898009900A6220D08C8
:1005A00095000130980085220D0898009900A62238
:1005B0000D0894000130980085220D08900001304C
:1005C000980085220D0898009900A6220D08910038
:1005D0000130980085220D0898009900A6220D0888
:1005E0009200980185220D0898009900A6220D0816
:1005F00093002D203D2B01309E009F01BF2011084C
:100600009E00E3202F30A000DE2012089E00E32091
:100610002F30A000DE2013089E00E3202030A00031
:10062000DE202030A000DE202030A000DE20F820D8
:1006300001309E009F00BF2014089E00E3203A3046
:10064000A000DE2015089E00E3203A30A000DE2046
:1006500016089E00E3203E2B03081F3983008128E3
:1006600005193C2B0130970005193A2B0A30A500DB
:100670003120342BA729552AB52AFB2A85193E2B70
:08068000851D402B302B6300A7
:02400E00F13F80
:00000001FF
;PIC16F84A
;CRC=70D6  CREATED="04-nov.-17 12:46"
