:060000000A128A11F42F20
:10085C000A128A11BB260A128A1183120313051974
:10086C00512CA701A70A831203130519472C0D302D
:10087C00AA00FB30A900A90B412CAA0B412C462C39
:10088C00392C0A128A1162240A128A110A128A114C
:10089C0053270A128A110A128A11DB260A128A11AC
:1008AC000A128A11F2250A128A118312031385196E
:1008BC005B2C8519332C5F2C0730F501F50AE825E4
:1008CC000A128A110030A4260A128A110E30E2256F
:1008DC000A128A11E42C6330F7000730F800F90192
:1008EC002008FA000030EC240A128A118312031338
:1008FC00A000270B902C712C0C30F7000430F80062
:10090C00F9012408FA000130EC240A128A1183122E
:10091C000313A40002302706031DA52C822CCB2721
:10092C000A128A11F700F801F80AF9012108FA00F5
:10093C000130EC240A128A1183120313A100033034
:10094C002706031DB92C952C1730F700F801F80A6F
:10095C00F901F90A2308FA000030EC240A128A1172
:10096C0083120313A30004302706031DCD2CAA2CDD
:10097C003B30F7000430F800F901F90A2508FA00B9
:10098C000030EC240A128A1183120313A5000530DF
:10099C002706031DE02CBE2C0730F7000C30F800A6
:1009AC00F9012208FA000130EC240A128A11831290
:1009BC000313A200063027060319D22C073083122A
:1009CC0003132702031C7F2C0C30E22DA80083128A
:1009DC00031305182D2D0C30E2250A128A118312EF
:1009EC0003130518002DFA0A7A0877020318092D4B
:1009FC002808082DFA0328087A02031C072D7A0F01
:100A0C00092D7708FA007908F5007808E8250A120C
:100A1C008A110630831203132706031D1B2D7A0837
:100A2C00A2003E260A128A111F2D7A08A4260A1249
:100A3C008A110330FD008A30FC005630FB00FB0BA2
:100A4C00252DFC0B252DFD0B252D2C2DED2C851C82
:100A5C00F12C0519462DA70A831203130519402DF5
:100A6C000D30FC00FB30FB00FB0B3A2DFC0B3A2D40
:100A7C003F2D322D7A0877020318462D7708FA009D
:100A8C00063027060319F80A7908F500F80A7808E1
:100A9C00E8250A128A110E30E2257A08080083161E
:100AAC000612861206138613061186110230F70001
:100ABC000430F600BA30F500F50B622DF60B622D02
:100ACC00F70B622D000083120313061186112730D9
:100ADC00F600F530F500F50B712DF60B712D30305D
:100AEC00A6250A128A110730F6007D30F500F50BA9
:100AFC007D2DF60B7D2D3030A6250A128A11F9308A
:100B0C00F5000000F50B872D8B2D00003030A6254D
:100B1C000A128A112030A6250A128A112830E225E1
:100B2C000A128A110830E2250A128A110630E225CF
:100B3C000A128A110C30E2250A128A110130E22DB8
:100B4C00F200721EAD2D831203130616B02D831204
:100B5C0003130612F21EB62D831203138616B92D3B
:100B6C00831203138612721FBF2D831203130617F1
:100B7C00C22D831203130613F21FC82D8312031305
:100B8C008617CB2D83120313861386150330F100C1
:100B9C009730F000F00BD02DF10BD02DD52D83120A
:100BAC00031386110330F1009730F000F00BDC2DAD
:100BBC00F10BDC2DE12D0800F40083120313061158
:100BCC007408B32EF6007508031DEF2D7608803ED1
:100BDC00E22D7608C03EE22D0130F501E8250A121F
:100BEC008A11831203132108A4260A128A112F30AA
:100BFC009E260A128A11831203132408A4260A12B1
:100C0C008A112F309E260A128A1183120313200890
:100C1C00A4260A128A1120309E260A128A1120302C
:100C2C009E260A128A1120309E260A128A113E260E
:100C3C000A128A110130F501F50AE8250A128A1107
:100C4C00831203132308A4260A128A113A309E2613
:100C5C000A128A11831203132508A4260A128A1178
:100C6C003A309E260A128A11831203132608A42EE8
:100C7C00831203132208013A0319572E033A03195E
:100C8C00612E013A03196B2E073A0319752E013A9E
:100C9C0003197F2E033A0319892E013A0319932E57
:100CAC009D2E44309E260A128A114F309E260A121F
:100CBC008A114D309E2E4C309E260A128A115530C8
:100CCC009E260A128A114E309E2E4D309E260A12F6
:100CDC008A1141309E260A128A1152309E2E4D30B6
:100CEC009E260A128A1149309E260A128A11453014
:100CFC009E2E4A309E260A128A1155309E260A12C2
:100D0C008A1145309E2E56309E260A128A11493081
:100D1C009E260A128A1145309E2E53309E260A12A8
:100D2C008A1141309E260A128A1142309E2E0800EA
:100D3C00F4008312031306157408B32EF500AC27C8
:100D4C000A128A11F500750E0F39303E9E260A12D2
:100D5C008A1175080F39303E9E2EF3007308A625B4
:100D6C000A128A11730EF039A62D073083169C00D7
:100D7C0006309F0083129F018B1383160514851474
:100D8C0005158515BB270A128A11D03090270A1237
:100D9C008A11073090270A128A11903090270A1274
:100DAC008A11C6270A128A11552DBB270A128A11DD
:100DBC00D03090270A128A11003090270A128A111B
:100DCC00BB270A128A11D13090270A128A110130DE
:100DDC0023270A128A1144270A128A11A60001300D
:100DEC0023270A128A1144270A128A11A5000130FE
:100DFC0023270A128A1144270A128A11A3000130F0
:100E0C0023270A128A11A200013023270A128A1101
:100E1C0044270A128A11A100013023270A128A11D1
:100E2C0044270A128A11A400003023270A128A11BF
:100E3C0044270A128A11A000C62FF000F101831674
:100E4C000614F201831286140310F10D06187114A6
:100E5C0086100830F20A7202031C282F8316061023
:100E6C007008031D3D2F831203130614402F8312A9
:100E7C00031306108614861071080800F100F001A7
:100E8C000A307102031C4F2F1030F1020A30F007A8
:100E9C00462F7108F00770080800BB270A128A1148
:100EAC00D03090270A128A11003090270A128A112A
:100EBC00003090270A128A1183122508AC270A12D7
:100ECC008A1190270A128A1183122308AC270A125E
:100EDC008A1190270A128A118312220890270A126B
:100EEC008A1183122108AC270A128A1190270A1240
:100EFC008A1183122408AC270A128A1190270A122D
:100F0C008A1183122008AC270A128A1190270A1220
:100F1C008A11C62FF100F201F11F982F83120313CF
:100F2C0006149B2F83120313061086140310F10D65
:100F3C0086100830F20A7202031C922F83160614D4
:100F4C00831286148610831606100800F100F00137
:100F5C000A307102031CB72F1030F0070A30F1026F
:100F6C00AE2F7108F00770080800831203130614E3
:100F7C00861483168610061083120610861008003D
:100F8C008312061086140614080002302406031D72
:100F9C00D62FE7270A128A11003A031D1D341C3480
:100FAC000430240603191E340630240603191E349B
:100FBC000930240603191E340B30240603191E3481
:100FCC001F342008F00004307002031CF02F043092
:100FDC00F002E92F7008031901340034A001A101BB
:100FEC00A201A301A401A501A601A70183010A1274
:040FFC008A112E2CFC
:02400E00F2FFBF
:00000001FF
