:020000008E2B45
:1000060083121E1A08280612092806169E1A0D289B
:1000160086120E2886161E1B12280613132806178C
:100026009E1B172886131828861786150330CC00C2
:100036009730CD00CD0B1D28CC0B1D2800000000ED
:1000460086110330CC009730CD00CD0B2828CC0B81
:0800560028280000000008004A
:10005E0083121D089E0003201D089E009E0D1E107B
:10006E009E0D1E109E0D1E109E0D1E1003200800CC
:0C007E00831206111C089D002F200800B2
:10008A008312C2011C08093C031850281030C20709
:10009A000A309C0247281C084207C0004008C200D8
:0A00AA004008C1004108C000080032
:0C00B400831206151C089D002F20080078
:1000C00083121B08003A031D6A281A08803E9C0010
:1000D0003F2070281A08803E9C0040309C073F203B
:0200E000080016
:1000E20083120F08C20004304202031C7B28043032
:1000F200C20274284208003A031D82280130C1005E
:0A0102008328C1014108C000080075
:10010C0083121A089C00452040089A0040089C0065
:10011C009C0C9C139C0C9C139C0C9C139C0C9C1377
:10012C0030309C075A200F301A059C0030309C0749
:04013C005A2008003D
:1001400083121308013A031DAF2844309C005A2043
:100150004F309C005A204D309C005A200229130831
:10016000023A031DBD284C309C005A2055309C009B
:100170005A204E309C005A2002291308033A031DCE
:10018000CB284D309C005A2041309C005A205230E0
:100190009C005A2002291308043A031DD9284D3027
:1001A0009C005A2049309C005A2045309C005A201F
:1001B00002291308053A031DE7284A309C005A20FB
:1001C00055309C005A2045309C005A2002291308C3
:1001D000063A031DF52856309C005A2049309C00F1
:1001E0005A2045309C005A2002291308073A031D63
:1001F000022953309C005A2041309C005A20423042
:060200009C005A200800DA
:100206008312C2010830420203181429941B0D29D7
:1002160006100E2906148614940D14108610C20AB0
:100226000529831606148312861406181C29151030
:100236001D29151486108316061000301518013076
:08024600C1004108C0000800DE
:10024E008312051C2E29851C2E2903142F29031019
:10025E00031870290C309C003F2005183E29980A7F
:10026E001808150203183D291408980051299803FF
:10027E0014081802FF3003180030C1001808FF3AA6
:10028E00FF30031D0030C0004108C004031951297E
:10029E001508980016089A0017089B0060200C0895
:1002AE00063A031D5E2918089300A020612918083C
:1002BE009A0086200330CB008A30CC005530CD001A
:1002CE00CD0B6729CC0B6729CB0B672900000000EB
:1002DE002729051986298C0A051980290D30CC008D
:1002EE00FB30CD00CD0B7929CC0B79290000000015
:1002FE0073291808150203188629150898000C088A
:10030E00063A031D8B29960A960A16089A001708B4
:10031E009B0060200E309C003F20180899001908A1
:04032E00C000080003
:100332008312061486148316861006108312061082
:040342008610080019
:1003460083120D08023A031DB229712040080319D1
:10035600AF291D309400B1291C309400D7290D080F
:10036600043AFF30031D0030C1000D08063AFF3085
:10037600031D0030C0004008C1040D08093AFF30D3
:10038600031D0030C0004008C1040D080B3AFF30C1
:10039600031D0030C0004108C0040319D5291E30D2
:0E03A6009400D7291F3094001408C0000800EE
:1003B4008312C30183160614C201083042020318D3
:1003C400ED2983128614C30D4310061CEA29431435
:1003D4008610C20ADF298316061014080319F529AA
:1003E40083120610F7298312061486148610430814
:0803F400C1004108C00008002F
:0A03FC008312061086140614080090
:10040600831606128612061386130611861102300B
:10041600CB000430CC00BA30CD00CD0B102ACC0B6B
:10042600102ACB0B102A00008312061186112730E2
:10043600CC00F530CD00CD0B1E2ACC0B1E2A303059
:100446009E0003200730CC007D30CD00CD0B292A3D
:10045600CC0B292A30309E0003200230CC004B30D2
:10046600CD00CD0B342ACC0B342A30309E0003202D
:1004760020309E00032028309C003F2008309C003E
:100486003F2006309C003F200C309C003F2001306E
:060496009C003F2008005D
:10049C008312C2011408093C0318592A1030940223
:1004AC000A30C207502A14084207C0004008C20094
:0A04BC004008C1004108C00008001C
:1004C600073083129A0001309B0060209A01862033
:1004D6000E309C003F2007300C020318D92A0C0866
:1004E600013A031D822A9401633095000730960075
:1004F60097010F089800272140088F00722A0C08E0
:10050600023A031D932A013094000C309500043002
:10051600960097010D089800272140088D00822A31
:100526000C08033A031DA52AA321013094004008B4
:1005360095000130960097010E0898002721400883
:100546008E00932A0C08043A031DB62A940117302C
:100556009500013096000130970011089800272178
:1005660040089100A52A0C08053A031DC72A9401E4
:100576003B30950004309600013097001008980033
:10058600272140089000B62A0C08063A031DD82AEF
:1005960001309400073095000C309600970113083F
:1005A6009800272140089300C72A6E2A0C309C0029
:0405B6003F200800DA
:1005BA009921D0309400032194010321940103214D
:1005CA0010089C00452040089400032111089C0053
:1005DA0045204008940003211308940003210E08C3
:1005EA009C0045204008940003210D089C004520EA
:1005FA004008940003210F089C00452040089400FD
:06060A000321FE2108009F
:10061000013083129A009B0160200E089A00862008
:100620002F309C005A200D089A0086202F309C0005
:100630005A200F089A00862020309C005A20203033
:100640009C005A2020309C005A20A02001309A00A3
:1006500001309B00602011089A0086203A309C00EF
:100660005A2010089A0086203A309C005A2012081E
:060670009A00862008003C
:100676009921D03094000321940103219921D1308E
:1006860094000321FF309400DA21400894004E22A2
:1006960040089200FF309400DA21400894004E2270
:1006A60040089000FF309400DA21400894004E2262
:1006B60040089100FF309400DA2140089300FF3093
:1006C6009400DA21400894004E2240088E00FF3044
:1006D6009400DA21400894004E2240088D009401CF
:1006E600DA21400894004E2240088F00FE210800BF
:1006F6008B13831605148514051585159921D0309D
:1007060094000321073094000321903094000321C4
:06071600FE210322080091
:10071C007B230519A22B01308C000519A02B0D3061
:10072C00CC00FB30CD00CD0B992BCC0B992B0000C2
:10073C000000932B6322DD223B2308238519A42B75
:08074C00851DA62B8F2BA92BA4
:02400E00F13F80
:00000001FF
