:020000040000FA
:020000000528D1
:100008000900B421A022051914280130A6000519F9
:1000180012280A308E008F0149210B28EA221E215E
:10002800E420622385191628851D182807286300EF
:100038001B2892011008093C031827281030900249
:100048000A3092071E281008920708001E089A0016
:1000580004301A02031C332804309A022C289A0808
:10006800031D38283915392839110800BD0105182C
:10007800BD0ABE018518BE0A3D083E05BC009100B8
:100088009501B4220C1C81280C3098002D220518EB
:100098005528A50A25083402031854283308A50052
:1000A8006B28A5032508910033089500BA220C088F
:1000B800BC0025089100FF309500B4220C08BD0053
:1000C8003C083D04BE003E1C6B283408A5003108DE
:1000D80097003208A700322206302602031D78282E
:1000E8002508A000B7217B282508B7001822F4307E
:1000F8008E0001308F0049213A2805199128A60A57
:1001080005198B280A308E008F014921842825087B
:100118003402031891283408A50006302602031972
:10012800B10AB10A310897003208A70032220E300E
:1001380098002D2208009C011B08093C0318A928D7
:1001480010309C070A309B02A0281B089C07080057
:1001580002302202031DB9282A20391DB6281D3075
:100168009D00B8281C309D00E32822089100043027
:100178009500B4220C08BC002208910006309500B6
:10018800B4220C08BD002208910009309500B42261
:100198000C08BE00220891000B309500B4220C0810
:1001A800BF003C083D04C0003E04BC003F04BD0045
:1001B8003D1CE1281E309D00E3281F309D000800EB
:1001C800A721D0309A0088219A018821A721D1300F
:1001D8009A008821B9146D21300890001D2012085A
:1001E800A400B9146D21300890001D201208A30046
:1001F800B9146D21300890001D201208A100B9140F
:100208006D213008A000B9146D21300890001D2020
:1002180012089F00B9146D21300890001D201208A3
:10022800A200B9106D21300890001D2012089E0010
:10023800B0210800A721D0309A0088219A0188218E
:100248009A01882123089B009F201C089A00882176
:1002580021089B009F201C089A00882120089A00EA
:1002680088211F089B009F201C089A0088212208CB
:100278009B009F201C089A0088211E089B009F2035
:100288001C089A008821B02108008F0A8E308D0042
:1002980001308C008C0B4E298D0B4C298E0B4A2972
:1002A8008F0B4A2908003608BB0003195F29031081
:1002B800950DBB0B5B291508A80008003608BA0085
:1002C80003196A290310950CBA0B66291508AC00A6
:1002D8000800B00183160614FF308312B500B50A72
:1002E8008614B00D30100618301486100730350209
:1002F800031C7329831606108312B91C0614B91837
:100308000610861486100800FF30B500B50A1A08D2
:1003180095003508B6005721A81F0610A81B06141B
:100328008614861007303502031C8A2983160614A2
:10033800831286143910061839148610831606108D
:1003480083120610080006148614831686100610F9
:10035800831206108610080006108614061408007A
:100368008501860108002003031DC4294430960036
:100378007B224F3096007B224D3096007B22172A35
:1003880002302002031DD2294C3096007B225530C2
:1003980096007B224E3096007B22172A03302002DB
:1003A800031DE0294D3096007B22413096007B22C8
:1003B800523096007B22172A04302002031DEE29B2
:1003C8004D3096007B22493096007B2245309600BE
:1003D8007B22172A05302002031DFC294A3096008B
:1003E8007B22553096007B22453096007B22172AC7
:1003F80006302002031D0A2A563096007B22493017
:1004080096007B22453096007B22172A073020026F
:10041800031D172A533096007B22413096007B2219
:10042800423096007B22080037089B009F201C085A
:10043800B70095000430B600622130302C079600D2
:100448007B220F303705BC0030303C0796007B22FA
:10045800080006111808990080220800A708031D43
:100468003D2A80301707BC0000303C0798002D2239
:10047800442A80301707BC0040303C0798002D22E2
:1004880008008316061286120613861306118611B3
:10049800C8308E008F0183124921061186111E3043
:1004A8008E008F014921303099008A2205308E0054
:1004B8008F014921303099008A2201308E008F0146
:1004C8004921303099008A22203099008A22283028
:1004D80098002D22083098002D22063098002D22F1
:1004E8000C3098002D22013098002D2208000615A6
:1004F80016089900802208008A22190895000430FD
:10050800B6005721280899008A2208000612191AED
:1005180006168612991A86160613191B06178613CD
:10052800991B8617861502308E008F014921861186
:1005380002308E008F0149298B1383160514851408
:10054800051585158312A721D0309A008821073018
:100558009A00882190309A008821B021452208000D
:100568008C011108150203198C0908008C01031469
:1005780015081102031C8C09080014088A001308C6
:10058800930A0319940A82000134443401344F3425
:1005980001344D3401344C340134553401344E3473
:1005A800013441340134523401344934013445347E
:1005B80001344A340134563401345334013442345A
:1005C80001342F340134203401343A340730970091
:1005D8000130A7003222B70118220E3098002D22D0
:1005E8000730260203185E2B2603031D072BB301D1
:1005F8006330B4000730B100B2011E08A5003A20EC
:1006080025089E00F82A02302602031D182B013007
:10061800B3000C30B4000430B100B2012208A500C8
:100628003A202508A200072B03302602031D2A2B97
:10063800AC200130B3001D08B4000130B100B20194
:100648001F08A5003A2025089F00182B0430260211
:10065800031D3B2BB3011730B4000130B10001304A
:10066800B2002108A5003A202508A1002A2B053050
:100678002602031D4C2BB3013B30B4000430B100FB
:100688000130B2002308A5003A202508A3003B2B1F
:1006980006302602031D5D2B0130B3000730B4007D
:1006A8000C30B100B2012008A5003A202508A000AE
:1006B8004C2BF42A0C3098002D22080001309700AA
:1006C800A70132221F08B70018222F3096007B227C
:1006D8002208B70018222F3096007B221E08B70088
:1006E8001822203096007B22203096007B22203072
:1006F80096007B22B721013097000130A7003222F3
:100708002108B70018223A3096007B222308B70048
:1007180018223A3096007B222408B70018220800D5
:02400E00F23F7F
:00000001FF
