:10000000000000308A002A28A301A200FF30A207C6
:10001000031CA307031C26280330A100DF30122095
:100020000628A101E83EA000A109FC30031C1B2802
:10003000A00703181828A0070000A10F18282018EF
:100040002128A01C252800002528080083138312DE
:10005000031308008301073083169F009C0083125E
:100060008A110A1220248A110A120519482801301F
:10007000AE008A110A12051942280A308A010420AA
:100080008A0139288A110A1288238A110A12A221A8
:100090008A110A125A218A110A12D3228A110A12CB
:1000A00085194E288A110A12851D52288A01332883
:1000B00083102F1A831483180616831C06128310CC
:1000C000AF1A831483188616831C861283102F1B85
:1000D000831483180617831C06132F0D0318861725
:1000E000031C8613861502308A0104208611023013
:1000F0008A01042008008A0158202F0EF039AF0031
:100100008A015820080006118A017B200800061584
:100110008A017B200800B3088A110A12031D9C285B
:10012000A50180303207A4000318A50A0030240777
:10013000AF008A110A12A528A50180303207A40059
:100140000318A50A40302407AF008A018320080065
:100150008316061286120613861306118611C830FE
:1001600083128A010420061186111E308A010420A0
:100170003030AF008A01582005308A010420303029
:10018000AF008A01582001308A0104203030AF00CE
:100190008A0158202030AF008A0158202830AF0053
:1001A0008A0183200830AF008A0183200630AF0027
:1001B0008A0183200C30AF008A0183200130AF0018
:1001C0008A01832008000614861483168610061000
:1001D0008312061086100800061086140614080004
:1001E000B501083035028A110A1203180529300DAD
:1001F00003180614031C06108614B00D8610013077
:10020000B5078A110A12031CF128831606148312FB
:100210008614060C03183614031C36108610831639
:100220000610831206100800B0018316061483120C
:10023000B501083035028A110A1203182D298614D7
:10024000B00D060C03183014031C3010861001305A
:10025000B5078A110A12031C192983160610030117
:100260008312361C013E03190610031D0614861462
:1002700086100800B7010A3038028A110A12031CDE
:1002800047291030B8020A30B7078A013B293808DD
:10029000B7070800B8010A3037028A110A12031C96
:1002A00057291030B8070A30B7028A014B2937089E
:1002B000B80708008A01E320D030B0008A01F0209E
:1002C000B0018A01F0208A01E320D130B0008A0118
:1002D000F02036148A0114213008B8008A013A212E
:1002E0003708AD008A0114213008B8008A013A218C
:1002F0003708AC008A0114213008B8008A013A217D
:100300003708AB008A0114213008A7008A011421A4
:100310003008B8008A013A213708A8008A01142160
:100320003008B8008A013A213708A90036148A013A
:1003300014213008B8008A013A213708AA008A013E
:10034000EC2008008A01E320D030B0008A01F020C0
:10035000B0018A01F0208A01F0202C08B7008A0140
:100360004A213808B0008A01F0202B08B7008A0122
:100370004A213808B0008A01F0202708B0008A011D
:10038000F0202808B7008A014A213808B0008A0105
:10039000F0202908B7008A014A213808B0008A01F4
:1003A000F0202A08B7008A014A213808B0008A01E3
:1003B000F0208A01EC200800013027028A110A127D
:1003C000031DF1294430AF008A0187204F30AF0070
:1003D0008A0187204D30AF008A0187208A110A12D6
:1003E0006C2A023027028A110A12031D062A4C3099
:1003F000AF008A0187205530AF008A0187204E3038
:10040000AF008A0187208A110A126C2A0330270262
:100410008A110A12031D1B2A4D30AF008A01872062
:100420004130AF008A0187205230AF008A01872017
:100430008A110A126C2A043027028A110A12031D3B
:10044000302A4D30AF008A0187204930AF008A0141
:1004500087204530AF008A0187208A110A126C2A52
:10046000053027028A110A12031D452A4A30AF00BF
:100470008A0187205530AF008A0187204530AF00C0
:100480008A0187208A110A126C2A063027028A11F3
:100490000A12031D5A2A5630AF008A0187204930BC
:1004A000AF008A0187204530AF008A0187208A117A
:1004B0000A126C2A073027028A110A12031D6C2ABD
:1004C0005330AF008A0187204130AF008A01872076
:1004D0004230AF008A01872008002A08B0000430AB
:1004E00030028A110A12031C792A0430B0028A01F0
:1004F0006F2AB0088A110A12031D822AB6148A11C3
:100500000A12832AB6100800023029028A110A1240
:10051000031D9A2A8A016D228A110A12B61C952A95
:100520001D30B9008A110A12972A1C30B9008A11AD
:100530000A12BD2A043029020130031D0030A60032
:10054000063029020130031D0030A60409302902BB
:100550000130031D0030A6040B3029020130031DB9
:100560000030A6048A110A120319BB2A1E30B900F2
:100570008A110A12BD2A1F30B90008008A014A21D7
:10058000A501380E0F39A40030302407AF008A01CE
:1005900087200F303805A501A40030302407AF00B4
:1005A0008A0187200800B3010130B2008A018B2044
:1005B0002808B7008A01BE222F30AF008A018720A9
:1005C0002908B7008A01BE222F30AF008A01872098
:1005D0002A08B7008A01BE222030AF008A01872096
:1005E0008A0187208A0187208A01DC210130B3003B
:1005F0008A018B202B08B7008A01BE223A30AF0057
:100600008A0187202C08B7008A01BE223A30AF0049
:100610008A0187202D08B7008A01BE220800013018
:1006200005180030A600013085180030A6048A1194
:100630000A1203195F2B0C30AF008A0183208A1144
:100640000A1205182F2BBE0A3E083B028A110A1215
:1006500003182C2B3A08BE008A110A12412BBE0344
:100660003A083E02013003180030A6003E0A01306D
:10067000031D0030A6048A110A120319412B3B08FE
:10068000BE003D08B3003C08B2008A018B20063052
:100690002E028A110A12031D542B3E08A7008A015C
:1006A000DC218A110A12582B3E08B7008A01BE22AB
:1006B0000130A300F4308A0105208A010F2B8A1132
:1006C0000A120519752BAE0A8A110A1205196D2B2B
:1006D0000A308A0104208A01642B3E083B028A11F9
:1006E0000A120318752B3B08BE0006302E028A1131
:1006F0000A12031D7C2BBC0ABC0A3D08B3003C084F
:10070000B2008A018B200E30AF008A0183200800DE
:100710000130B3000730B2008A018B20B7018A0193
:10072000BE220E30AF008A01832007302E028A11CC
:100730000A1203181B2C01302E028A110A12031D03
:10074000AF2BBA016330BB000730BC00BD012A08E3
:10075000BE008A010F233E08AA008A019B2B0230AB
:100760002E028A110A12031DC42B0130BA000C306C
:10077000BB000430BC00BD012908BE008A010F2364
:100780003E08A9008A01AF2B03302E028A110A12FB
:10079000031DDB2B0130BA008A0184223908BB001B
:1007A0000130BC00BD012808BE008A010F233E08AD
:1007B000A8008A01C42B04302E028A110A12031DDC
:1007C000EF2BBA011730BB000130BC00BD002B0875
:1007D000BE008A010F233E08AB008A01DB2B0530E7
:1007E0002E028A110A12031D042CBA013B30BB00F1
:1007F0000430BC000130BD002C08BE008A010F236C
:100800003E08AC008A01EF2B06302E028A110A1234
:10081000031D192C0130BA000730BB000C30BC009E
:10082000BD012708BE008A010F233E08A7008A01E8
:10083000042C8A01952B0C30AF008A01832008001C
:10084000073083169C0006309F0083129F018B1394
:100850008316051485140515851583128A01E32076
:10086000D030B0008A01F0200730B0008A01F020BB
:100870009030B0008A01F0208A01EC208A01A82083
:0608800008008A01412C72
:02400E00323F3F
:00000001FF
