:1000000003308A008B2B000083160610831206141F
:100010008316861083128614831606108312061028
:1000200083168610831286100800AA012A08073C4E
:10003000031C2F2829088039803C03192128061029
:1000400022280614831606108610831286140310C5
:10005000A90D8316861083128610AA0A1628831605
:100060008610831286148316061483122B1006182A
:100070002B14831686108312861000302B18013043
:10008000F8000800831606108312061083168610E7
:100090008312861483160610831206140800353066
:1000A000840083130008031966280130F800BF306C
:1000B000F7006400F70B5928F80B57284A30F7006F
:1000C000F70B602800006400800B552808003408F6
:1000D0001039103C03196E2806126F280616831675
:1000E0000612831234082039203C0319792886121D
:1000F0007A28861683168612831234084039403CCB
:1001000003198428061385280617831606138312FD
:1001100034088039803C03198F288613902886176D
:100120008316861383128615831686110230831276
:10013000B5004F2086118316861102308312B50058
:100140004F2008003208B4006720320EB300F030B0
:10015000B3053308B40067200800061183160611A2
:1001600083123108B200A2200800073083169C00D9
:100170000508850064000230F700F70BBD28C02891
:100180001C0883120D1383161F149F141F159F1133
:1001900083121F100B138B138B1BCB280420D03022
:1001A000A90015200730A90015209030A9001520BE
:1001B0004220C830B5004F20061183160611831265
:1001C0008611831686111E308312B5004F20303001
:1001D000B40067200530B5004F203030B4006720F0
:1001E0000130B5004F203030B40067202030B4001B
:1001F00067202830B100AD200830B100AD200630B6
:10020000B100AD200C30B100AD200130B100AD2007
:100210008A110A12982BAF08031D142980302E076B
:10022000B000B100AD201A2980302E07403EB0004A
:10023000B100AD200800B0012F08093C03182529A2
:100240001030B0070A30AF021C292F08B007300861
:10025000F800080006158316061183123008B20054
:10026000A22008002E08AF001B217808AE002E0E39
:10027000F7000F30F7057708303EAF00B0002A21B5
:100280002E080F39303EAF00B0002A21080001309F
:100290002002F93E03189329073E94294430B00008
:1002A0002A214F30B0002A214D30B0002A21932955
:1002B0004C30B0002A215530B0002A214E30B00019
:1002C0002A2193294D30B0002A214130B0002A2143
:1002D0005230B0002A2193294D30B0002A214930F4
:1002E000B0002A214530B0002A2193294A30B000BD
:1002F0002A215530B0002A214530B0002A21932907
:100300005630B0002A214930B0002A214530B000D3
:100310002A2193295330B0002A214130B0002A21EC
:100320004230B0002A2108000A148A100A118207FC
:100330004E29582962296C29762980298A29051C89
:10034000A3298518A5290030A6290130003A031DEC
:10035000D7290C30B100AD200518B629AD0A2D08FB
:100360002A020318B5292908AD00BF29AD032908C1
:100370002D02031CBD292D0FBF292A08AD002B0813
:10038000AE002C08AF000B212708063C031DCC292A
:100390002D08A0004721CF292D08AE0032210230C0
:1003A000AE00FA30B5004F20AE0BD1299F290519B8
:1003B000E629A70A0519E0290A30B5004F20DA29F5
:1003C0002D082A020318E6292A08AD002708063C52
:1003D0000319AB0AAB0A2B08AE002C08AF000B21A7
:1003E0000E30B100AD202D08F80008000730AE0037
:1003F0000130AF000B21AE0132210E30B100AD2033
:100400002708063C031CA02A270B122AA9016330E7
:10041000AA000730AB00AC012308AD009F2178088B
:10042000A300042A2708023C031D232A0130A90047
:100430000C30AA000430AB00AC012208AD009F21B3
:100440007808A200122A2708033C031D6D2A2208FF
:10045000023C031D482A2308A8002808033C03186F
:10046000342A0430A8022D2AA808031D3B2A013093
:10047000F8003D2A3D2A0030F800F8080319442A04
:100480001D30F8005E2A472A1C30F8005E2A5E2ADA
:100490002208043C0319582A2208063C0319582A4A
:1004A0002208093C0319582A22080B3C031D5C2A28
:1004B0001E30F8005E2A5E2A1F30F8007808A80077
:1004C0000130A9002808AA000130AB00AC012108C6
:1004D000AD009F217808A100232A2708043C031DB2
:1004E0007D2AA9011730AA000130AB00AC00240816
:1004F000AD009F217808A4006D2A2708053C031D44
:100500008E2AA9013B30AA000430AB000130AC00B8
:100510002508AD009F217808A5007D2A2708063C04
:10052000031D9F2A0130A9000730AA000C30AB0040
:10053000AC012008AD009F217808A0008E2A002A77
:100540000C30B100AD208A110A12A32B0420D03048
:10055000A9001520A9011520A90115202508AF0023
:100560001B217808A800A90015202408AF001B2132
:100570007808A800A90015202008A9001520210846
:10058000AF001B217808A800A90015202208AF00A1
:100590001B217808A800A90015202308AF001B2103
:1005A0007808A800A900152042208A110A12A42B5D
:1005B000AA01A9012908073C031CEF2A831686100B
:1005C000831286140310AA0D8316061483120618CC
:1005D0002A148316861083128610A90ADA2AA8081C
:1005E0000319F42A0610F52A06148316061086103D
:1005F0008312861483168610831286102A08F80048
:100600000800AA012908093C03180B2B1030A90285
:100610000A30AA07022B2908AA072A08F8000800AE
:100620000420D030A9001520A90115200420D130C4
:10063000A90015200130A800D8227808A800A90038
:1006400001237808A6000130A800D8227808A80065
:10065000A90001237808A5000130A800D822780855
:10066000A800A90001237808A4000130A800D8221E
:100670007808A0000130A800D8227808A800A900B6
:1006800001237808A1000130A800D8227808A8002A
:10069000A90001237808A200A801D8227808A800A0
:1006A000A90001237808A30042208A110A12A52B71
:1006B0000130AE00AF010B212108AE0032212F30F6
:1006C000B0002A212208AE0032212F30B0002A21AA
:1006D0002308AE0032212030B0002A212030B000A3
:1006E0002A212030B0002A2147210130AE00AF007E
:1006F0000B212408AE0032213A30B0002A2125080F
:10070000AE0032213A30B0002A212608AE00322154
:100710008A110A12A62B03081F39830083161F149F
:100720009F141F159F1107309C0083138312B52857
:100730000519A42B0130A7000519A22B0A30B5001A
:100740004F209C2BF629A62A102B582B8519A62B57
:08075000851DA82B982B630006
:02400E00F13F80
:00000001FF
;PIC16F877A
;CRC=A2D9  CREATED="03-nov-17 13:19"
