:020000040000FA
:10000000352BB7018400B70A840A840B0828B70B84
:100010000A280800FA30FF3E031D0B2805280612A7
:10002000201A06168612A01A86160613201B06171B
:100030008613A01B86178615023001208611023018
:10004000012008002B08A0000F2003102B0DC0007A
:100050000310C00D0310C00D0310400DA0000F20B1
:10006000080006112C08AB002220080006152D08F8
:10007000AB0022200800AF08031D44282E08803E54
:10008000003EAC00312049282E08803E403EAC00A6
:1000900031200800831606128612061386130611F5
:1000A0008611C83001208312061186111E300120EE
:1000B0003030A0000F20053001203030A0000F208C
:1000C000013001203030A0000F202030A0000F2090
:1000D0002830AC0031200830AC0031200630AC00B4
:1000E00031200C30AC0031200130AC003120080050
:1000F00083120313061486148316861006108312C7
:100100000610861008000610861406140800A201C6
:1001100008302202031896280610A11B0614861424
:100120000310210DA1008610A20A88288316061448
:1001300083128614231006182314861083160610C3
:10014000831203112318031508000800A501831664
:1001500006148312A401083024020318B928861457
:100160000310250DA5002510061825148610A40AD5
:10017000AB288316061083120610A31C06148614DF
:100180008610250808000800A7012608093C031866
:10019000CE281030A6020A30A707C5282608A707D0
:1001A000270808000800A9012808093C0318DD28D1
:1001B0001030A9070A30A802D4282808A90729085E
:1001C00008000800782083120313D030A100872094
:1001D00083120313A1018720831203137820831253
:1001E0000313D130A100872083120313A314A62088
:1001F00083120313A600C420BE00A314A6208312FA
:100200000313A600C420BD00A314A6208312031369
:10021000A600C420BC00A314A62083120313B800B8
:10022000A314A62083120313A600C420B900A314AC
:10023000A62083120313A600C420BA00A310A62090
:1002400083120313A600C420BB008320080078207B
:1002500083120313D030A100872083120313A1015E
:10026000872083120313A1018720831203133D0803
:10027000A800D320A1008720831203133C08A80004
:10028000D320A1008720831203133808A100872000
:10029000831203133908A800D320A10087208312FA
:1002A00003133A08A800D320A10087208312031368
:1002B0003B08A800D320A1008720831203138320CA
:1002C00008003803031D6E294430AD0036204F303E
:1002D000AD0036204D30AD003620C1290230380245
:1002E000031D7C294C30AD0036205530AD00362042
:1002F0004E30AD003620C12903303802031D8A2953
:100300004D30AD0036204130AD0036205230AD00CA
:100310003620C12904303802031D98294D30AD0024
:1003200036204930AD0036204530AD003620C12999
:1003300005303802031DA6294A30AD00362055305D
:10034000AD0036204530AD003620C12906303802D8
:10035000031DB4295630AD0036204930AD0036209B
:100360004530AD003620C12907303802031DC129B0
:100370005330AD0036204130AD0036204230AD0064
:10038000362008003B08AA0004302A02031CCB29AF
:100390000430AA02C429AA08031DD12903150800A4
:1003A000D32903110800080002303A02031DE12995
:1003B000C221031DDE291D300800E0291C30080081
:1003C000FF2904303A0223110319231506303A029B
:1003D0002319031523110319231509303A02231990
:1003E00003152311031923150B303A0223190315A2
:1003F000031DFD291E300800FF291F3008000800DA
:100400003008A800D320B0000310300CC000031047
:10041000C00C0310C00C0310400C303EAD00362061
:100420000F303005303EAD00362008000130AE0000
:10043000AF013B203908B00000222F30AD0036203C
:100440003A08B00000222F30AD0036203B08B00043
:1004500000222030AD0036202030AD003620203084
:10046000AD00362061210130AE000130AF003B20ED
:100470003C08B00000223A30AD0036203D08B00004
:1004800000223A30AD0036203E08B00000220800BD
:1004900002300505051C0315031D7F2A0C30AC0036
:1004A000312005185B2AB50A3508320203185A2A8A
:1004B0003108B5006A2AB503310835020130030559
:1004C000231103192315350A23190315031D6A2A5D
:1004D0003208B5003308AE003408AF003B200630C8
:1004E0003F02031D772A3508B80061217A2A3508B2
:1004F000B00000220130B700F4300220482A05196C
:100500008D2ABF0A0519872A0A300120822A350858
:10051000320203188D2A3208B50006303F02031D4F
:10052000922AB30AB30A3308AE003408AF003B2066
:100530000E30AC0031203508080008000730AE004E
:100540000130AF003B20B00100220E30AC00312062
:1005500007303F0203180D2B3F03031DBA2AB101D8
:100560006330B2000730B300B4013B08B500482245
:10057000BB00AC2A02303F02031DCA2A0130B10081
:100580000C30B2000430B300B4013A08B500482280
:10059000BA00BA2A03303F02031DDC2AD421B60078
:1005A0000130B1003608B2000130B300B40139089F
:1005B000B5004822B900CA2A04303F02031DEC2AC4
:1005C000B1011730B2000130B3000130B4003C0873
:1005D000B5004822BC00DC2A05303F02031DFC2A7E
:1005E000B1013B30B2000430B3000130B4003D082B
:1005F000B5004822BD00EC2A06303F02031D0C2B3B
:100600000130B1000730B2000C30B300B40138083B
:10061000B5004822B800FC2AA82A0C30AC003120D2
:100620000800073083169C0006309F0083129F014C
:100630008B138316051485140515851578208312F0
:100640000313D030A1008720831203130730A100C9
:100650008720831203139030A10087208312031395
:1006600083204A20831203130800112383120313EB
:100670000519452B0130BF000519412B0A30012017
:100680003C2B9E22272183120313E22083120313A3
:0E06900016228519492B851D4B2B382B630034
:02400E00F23F7F
:00000001FF
;PIC16F877A
