:020000040000FA
:060000008A110A12052816
:100008000900BE21BF22051914280130B2000519C4
:1000180012280A30F200F30149210B2814231E216B
:10002800E4208C2385191628851D182807286300C5
:100038001B28A1012008093C031827281030A0021A
:100048000A30A1071E282008A10708002A08A600D0
:1000580004302602031C33280430A6022C28A608E4
:10006800031D38284515392845110800C901051808
:10007800C90ACA018518CA0A49084A05C800F5000C
:10008800F901DE22701C81280C30A4004A220518D0
:100098005528B10A31084002031854283F08B10016
:1000A8006B28B1033108F5003F08F900E422700815
:1000B800C8003108F500FF30F900DE227008C900D9
:1000C80048084904CA004A1C6B284008B1003D088A
:1000D800A3003E08B3004F2206303202031D7828E1
:1000E8003108AC00D4217B283108C3003522F43014
:1000F800F2000130F30049213A2805199128B20A83
:1001080005198B280A30F200F301492184283108A7
:100118004002031891284008B10006303202031942
:10012800BD0ABD0A3D08A3003E08B3004F220E30A9
:10013800A4004A220800A8012708093C0318A92896
:100148001030A8070A30A702A0282708A807080027
:1001580002302E02031DB9282A20451DB6281D305D
:10016800A900B8281C30A900E3282E08F50004309F
:10017800F900DE227008C8002E08F5000630F900E4
:10018800DE227008C9002E08F5000930F900DE22C9
:100198007008CA002E08F5000B30F900DE2270083E
:1001A800CB0048084904CC004A04C8004B04C900E5
:1001B800491CE1281E30A900E3281F30A9000800C7
:1001C800AF21D030A6008C21A6018C21AF21D130DF
:1001D800A6008C21C5146D213C08A0001D20210813
:1001E800B000C5146D213C08A0001D202108AF00F7
:1001F800C5146D213C08A0001D202108AD00C514C0
:100208006D213C08AC00C5146D213C08A0001D20E0
:100218002108AB00C5146D213C08A0001D20210851
:10022800AE00C5106D213C08A0001D202108AA00C1
:10023800BA210800AF21D030A6008C21A6018C215C
:10024800A6018C212F08A7009F202808A6008C2132
:100258002D08A7009F202808A6008C212C08A6009E
:100268008C212B08A7009F202808A6008C212E0887
:10027800A7009F202808A6008C212A08A7009F20F5
:100288002808A6008C21BA210800F30A8E30F10054
:100298000130F000F00B4E29F10B4C29F20B4A29E2
:1002A800F30B4A2908004208C70003195F29031005
:1002B800F90DC70B5B297908B40008004208C6008D
:1002C80003196A290310F90CC60B66297908B800C6
:1002D8000800BC01831603130614FF3083120313AE
:1002E800C100C10A8614BC0D3C1006183C148610C7
:1002F80007304102031C7529831603130610831265
:100308000313C51C0614C5180610861486100800A9
:10031800FF30C100C10A2608F9004108C200572170
:10032800B41F0610B41B0614861486100730410249
:10033800031C8E29831603130614831203138614D1
:1003480045100618451486108316031306108312E9
:100358000313061008000614861483160313861068
:100368000610831203130610861008000610861460
:1003780006140800831603139F13831203131F1018
:10038800831603139F111F159F141F1007309C001D
:1003980083120313850186018701880189010800FA
:1003A8002C03031DE1294430A2009A224F30A200F9
:1003B8009A224D30A2009A22342A02302C02031DC0
:1003C800EF294C30A2009A225530A2009A224E30D2
:1003D800A2009A22342A03302C02031DFD294D3035
:1003E800A2009A224130A2009A225230A2009A22F8
:1003F800342A04302C02031D0B2A4D30A2009A2205
:100408004930A2009A224530A2009A22342A0530A7
:100418002C02031D192A4A30A2009A225530A20044
:100428009A224530A2009A22342A06302C02031D53
:10043800272A5630A2009A224930A2009A22453033
:10044800A2009A22342A07302C02031D342A533082
:10045800A2009A224130A2009A224230A2009A2297
:1004680008004308A7009F202808C300F9000430AB
:10047800C200622130303807A2009A220F304305AB
:10048800C80030304807A2009A2208000611240844
:10049800A5009F220800B308031D5A2A80302307AD
:1004A800C80000304807A4004A22612A8030230788
:1004B800C80040304807A4004A22080083160313E6
:1004C800061286120613861306118611C830F2002A
:1004D800F301831203134921061186111E30F2001D
:1004E800F30149213030A500A9220530F200F301BB
:1004F80049213030A500A9220130F200F301492139
:100508003030A500A9222030A500A9222830A40057
:100518004A220830A4004A220630A4004A220C309D
:10052800A4004A220130A4004A2208000615220825
:10053800A5009F220800A9222508F9000430C2005E
:1005480057213408A500A92208000612251A061604
:100558008612A51A86160613251B06178613A51BD1
:10056800861786150230F200F30149218611023000
:10057800F200F30149290730831603139C00063063
:100588009F00831203139F018B1383160313051413
:1005980085140515851583120313AF21D030A600E5
:1005A8008C210730A6008C219030A6008C21BA211E
:1005B80062220800F001750879020319F0090800A1
:1005C800F001031479087502031CF0090800780883
:1005D8008A007708F70A0319F80A820001344434BC
:1005E80001344F3401344D3401344C340134553422
:1005F80001344E3401344134013452340134493425
:100608000134453401344A34013456340134533406
:100618000134423401342F340134203401343A3463
:100628000730A3000130B3004F22C30135220E303A
:10063800A4004A22073032020318882B3203031D14
:10064800312BBF016330C0000730BD00BE012A084E
:10065800B1003A203108AA00222B02303202031DD1
:10066800422B0130BF000C30C0000430BD00BE0179
:100678002E08B1003A203108AE00312B0330320287
:10068800031D542BAC200130BF002908C0000130E5
:10069800BD00BE012B08B1003A203108AB00422B47
:1006A80004303202031D652BBF011730C000013032
:1006B800BD000130BE002D08B1003A203108AD0060
:1006C800542B05303202031D762BBF013B30C0008E
:1006D8000430BD000130BE002F08B1003A203108B7
:1006E800AF00652B06303202031D872B0130BF0097
:1006F8000730C0000C30BD00BE012C08B1003A2004
:100708003108AC00762B1E2B0C30A4004A220800BE
:100718000130A300B3014F222B08C30035222F302C
:10072800A2009A222E08C30035222F30A2009A2256
:100738002A08C30035222030A2009A222030A200C5
:100748009A222030A2009A22D4210130A30001303D
:10075800B3004F222D08C30035223A30A2009A2256
:100768002F08C30035223A30A2009A223008C3006D
:04077800352208001E
:02400E00323F3F
:00000001FF
