:020000040000FA
:100000004328A5308C0001308D008C0B08288D0B07
:1000100005280A280800012001200800831606137D
:1000200086178312061708008F008E0106130B2017
:1000300006130F1806170B2003100F0C8F008E0AE3
:1000400008300E02031D182806170B200800900127
:100050009101861B29280B2001200310110C91000F
:100060009113861B91170B20900A08301002031D74
:100070002D28861F3F280120110808004228012052
:100080000030080008000E208312483014204F3042
:1000900014204C30142041301420203014204D30D6
:1000A0001420553014204E301420443014204F308A
:1000B00014200A3014200D301420272014205D282D
:0200C0006300DB
:00000001FF
;PIC16F84A
